{
	"contractName": "ChannelManager",
	"abi": [
		{
			"constant": true,
			"inputs": [],
			"name": "totalChannelWei",
			"outputs": [
				{
					"name": "",
					"type": "uint256"
				}
			],
			"payable": false,
			"stateMutability": "view",
			"type": "function"
		},
		{
			"constant": true,
			"inputs": [],
			"name": "totalChannelToken",
			"outputs": [
				{
					"name": "",
					"type": "uint256"
				}
			],
			"payable": false,
			"stateMutability": "view",
			"type": "function"
		},
		{
			"constant": true,
			"inputs": [],
			"name": "hub",
			"outputs": [
				{
					"name": "",
					"type": "address"
				}
			],
			"payable": false,
			"stateMutability": "view",
			"type": "function"
		},
		{
			"constant": true,
			"inputs": [
				{
					"name": "",
					"type": "address"
				}
			],
			"name": "channels",
			"outputs": [
				{
					"name": "threadRoot",
					"type": "bytes32"
				},
				{
					"name": "threadCount",
					"type": "uint256"
				},
				{
					"name": "exitInitiator",
					"type": "address"
				},
				{
					"name": "channelClosingTime",
					"type": "uint256"
				},
				{
					"name": "status",
					"type": "uint8"
				}
			],
			"payable": false,
			"stateMutability": "view",
			"type": "function"
		},
		{
			"constant": true,
			"inputs": [],
			"name": "NAME",
			"outputs": [
				{
					"name": "",
					"type": "string"
				}
			],
			"payable": false,
			"stateMutability": "view",
			"type": "function"
		},
		{
			"constant": true,
			"inputs": [],
			"name": "approvedToken",
			"outputs": [
				{
					"name": "",
					"type": "address"
				}
			],
			"payable": false,
			"stateMutability": "view",
			"type": "function"
		},
		{
			"constant": true,
			"inputs": [],
			"name": "challengePeriod",
			"outputs": [
				{
					"name": "",
					"type": "uint256"
				}
			],
			"payable": false,
			"stateMutability": "view",
			"type": "function"
		},
		{
			"constant": true,
			"inputs": [],
			"name": "VERSION",
			"outputs": [
				{
					"name": "",
					"type": "string"
				}
			],
			"payable": false,
			"stateMutability": "view",
			"type": "function"
		},
		{
			"inputs": [
				{
					"name": "_hub",
					"type": "address"
				},
				{
					"name": "_challengePeriod",
					"type": "uint256"
				},
				{
					"name": "_tokenAddress",
					"type": "address"
				}
			],
			"payable": false,
			"stateMutability": "nonpayable",
			"type": "constructor"
		},
		{
			"payable": true,
			"stateMutability": "payable",
			"type": "fallback"
		},
		{
			"anonymous": false,
			"inputs": [
				{
					"indexed": false,
					"name": "weiAmount",
					"type": "uint256"
				},
				{
					"indexed": false,
					"name": "tokenAmount",
					"type": "uint256"
				}
			],
			"name": "DidHubContractWithdraw",
			"type": "event"
		},
		{
			"anonymous": false,
			"inputs": [
				{
					"indexed": true,
					"name": "user",
					"type": "address"
				},
				{
					"indexed": false,
					"name": "senderIdx",
					"type": "uint256"
				},
				{
					"indexed": false,
					"name": "weiBalances",
					"type": "uint256[2]"
				},
				{
					"indexed": false,
					"name": "tokenBalances",
					"type": "uint256[2]"
				},
				{
					"indexed": false,
					"name": "pendingWeiUpdates",
					"type": "uint256[4]"
				},
				{
					"indexed": false,
					"name": "pendingTokenUpdates",
					"type": "uint256[4]"
				},
				{
					"indexed": false,
					"name": "txCount",
					"type": "uint256[2]"
				},
				{
					"indexed": false,
					"name": "threadRoot",
					"type": "bytes32"
				},
				{
					"indexed": false,
					"name": "threadCount",
					"type": "uint256"
				}
			],
			"name": "DidUpdateChannel",
			"type": "event"
		},
		{
			"anonymous": false,
			"inputs": [
				{
					"indexed": true,
					"name": "user",
					"type": "address"
				},
				{
					"indexed": false,
					"name": "senderIdx",
					"type": "uint256"
				},
				{
					"indexed": false,
					"name": "weiBalances",
					"type": "uint256[2]"
				},
				{
					"indexed": false,
					"name": "tokenBalances",
					"type": "uint256[2]"
				},
				{
					"indexed": false,
					"name": "txCount",
					"type": "uint256[2]"
				},
				{
					"indexed": false,
					"name": "threadRoot",
					"type": "bytes32"
				},
				{
					"indexed": false,
					"name": "threadCount",
					"type": "uint256"
				}
			],
			"name": "DidStartExitChannel",
			"type": "event"
		},
		{
			"anonymous": false,
			"inputs": [
				{
					"indexed": true,
					"name": "user",
					"type": "address"
				},
				{
					"indexed": false,
					"name": "senderIdx",
					"type": "uint256"
				},
				{
					"indexed": false,
					"name": "weiBalances",
					"type": "uint256[2]"
				},
				{
					"indexed": false,
					"name": "tokenBalances",
					"type": "uint256[2]"
				},
				{
					"indexed": false,
					"name": "txCount",
					"type": "uint256[2]"
				},
				{
					"indexed": false,
					"name": "threadRoot",
					"type": "bytes32"
				},
				{
					"indexed": false,
					"name": "threadCount",
					"type": "uint256"
				}
			],
			"name": "DidEmptyChannel",
			"type": "event"
		},
		{
			"anonymous": false,
			"inputs": [
				{
					"indexed": false,
					"name": "user",
					"type": "address"
				},
				{
					"indexed": true,
					"name": "sender",
					"type": "address"
				},
				{
					"indexed": true,
					"name": "receiver",
					"type": "address"
				},
				{
					"indexed": false,
					"name": "threadId",
					"type": "uint256"
				},
				{
					"indexed": false,
					"name": "senderAddress",
					"type": "address"
				},
				{
					"indexed": false,
					"name": "weiBalances",
					"type": "uint256[2]"
				},
				{
					"indexed": false,
					"name": "tokenBalances",
					"type": "uint256[2]"
				},
				{
					"indexed": false,
					"name": "txCount",
					"type": "uint256"
				}
			],
			"name": "DidStartExitThread",
			"type": "event"
		},
		{
			"anonymous": false,
			"inputs": [
				{
					"indexed": true,
					"name": "sender",
					"type": "address"
				},
				{
					"indexed": true,
					"name": "receiver",
					"type": "address"
				},
				{
					"indexed": false,
					"name": "threadId",
					"type": "uint256"
				},
				{
					"indexed": false,
					"name": "senderAddress",
					"type": "address"
				},
				{
					"indexed": false,
					"name": "weiBalances",
					"type": "uint256[2]"
				},
				{
					"indexed": false,
					"name": "tokenBalances",
					"type": "uint256[2]"
				},
				{
					"indexed": false,
					"name": "txCount",
					"type": "uint256"
				}
			],
			"name": "DidChallengeThread",
			"type": "event"
		},
		{
			"anonymous": false,
			"inputs": [
				{
					"indexed": false,
					"name": "user",
					"type": "address"
				},
				{
					"indexed": true,
					"name": "sender",
					"type": "address"
				},
				{
					"indexed": true,
					"name": "receiver",
					"type": "address"
				},
				{
					"indexed": false,
					"name": "threadId",
					"type": "uint256"
				},
				{
					"indexed": false,
					"name": "senderAddress",
					"type": "address"
				},
				{
					"indexed": false,
					"name": "channelWeiBalances",
					"type": "uint256[2]"
				},
				{
					"indexed": false,
					"name": "channelTokenBalances",
					"type": "uint256[2]"
				},
				{
					"indexed": false,
					"name": "channelTxCount",
					"type": "uint256[2]"
				},
				{
					"indexed": false,
					"name": "channelThreadRoot",
					"type": "bytes32"
				},
				{
					"indexed": false,
					"name": "channelThreadCount",
					"type": "uint256"
				}
			],
			"name": "DidEmptyThread",
			"type": "event"
		},
		{
			"anonymous": false,
			"inputs": [
				{
					"indexed": true,
					"name": "user",
					"type": "address"
				},
				{
					"indexed": false,
					"name": "senderAddress",
					"type": "address"
				},
				{
					"indexed": false,
					"name": "weiAmount",
					"type": "uint256"
				},
				{
					"indexed": false,
					"name": "tokenAmount",
					"type": "uint256"
				},
				{
					"indexed": false,
					"name": "channelWeiBalances",
					"type": "uint256[2]"
				},
				{
					"indexed": false,
					"name": "channelTokenBalances",
					"type": "uint256[2]"
				},
				{
					"indexed": false,
					"name": "channelTxCount",
					"type": "uint256[2]"
				},
				{
					"indexed": false,
					"name": "channelThreadRoot",
					"type": "bytes32"
				},
				{
					"indexed": false,
					"name": "channelThreadCount",
					"type": "uint256"
				}
			],
			"name": "DidNukeThreads",
			"type": "event"
		},
		{
			"constant": false,
			"inputs": [
				{
					"name": "weiAmount",
					"type": "uint256"
				},
				{
					"name": "tokenAmount",
					"type": "uint256"
				}
			],
			"name": "hubContractWithdraw",
			"outputs": [],
			"payable": false,
			"stateMutability": "nonpayable",
			"type": "function"
		},
		{
			"constant": true,
			"inputs": [],
			"name": "getHubReserveWei",
			"outputs": [
				{
					"name": "",
					"type": "uint256"
				}
			],
			"payable": false,
			"stateMutability": "view",
			"type": "function"
		},
		{
			"constant": true,
			"inputs": [],
			"name": "getHubReserveTokens",
			"outputs": [
				{
					"name": "",
					"type": "uint256"
				}
			],
			"payable": false,
			"stateMutability": "view",
			"type": "function"
		},
		{
			"constant": false,
			"inputs": [
				{
					"name": "user",
					"type": "address"
				},
				{
					"name": "recipient",
					"type": "address"
				},
				{
					"name": "weiBalances",
					"type": "uint256[2]"
				},
				{
					"name": "tokenBalances",
					"type": "uint256[2]"
				},
				{
					"name": "pendingWeiUpdates",
					"type": "uint256[4]"
				},
				{
					"name": "pendingTokenUpdates",
					"type": "uint256[4]"
				},
				{
					"name": "txCount",
					"type": "uint256[2]"
				},
				{
					"name": "threadRoot",
					"type": "bytes32"
				},
				{
					"name": "threadCount",
					"type": "uint256"
				},
				{
					"name": "timeout",
					"type": "uint256"
				},
				{
					"name": "sigUser",
					"type": "string"
				}
			],
			"name": "hubAuthorizedUpdate",
			"outputs": [],
			"payable": false,
			"stateMutability": "nonpayable",
			"type": "function"
		},
		{
			"constant": false,
			"inputs": [
				{
					"name": "recipient",
					"type": "address"
				},
				{
					"name": "weiBalances",
					"type": "uint256[2]"
				},
				{
					"name": "tokenBalances",
					"type": "uint256[2]"
				},
				{
					"name": "pendingWeiUpdates",
					"type": "uint256[4]"
				},
				{
					"name": "pendingTokenUpdates",
					"type": "uint256[4]"
				},
				{
					"name": "txCount",
					"type": "uint256[2]"
				},
				{
					"name": "threadRoot",
					"type": "bytes32"
				},
				{
					"name": "threadCount",
					"type": "uint256"
				},
				{
					"name": "timeout",
					"type": "uint256"
				},
				{
					"name": "sigHub",
					"type": "string"
				}
			],
			"name": "userAuthorizedUpdate",
			"outputs": [],
			"payable": true,
			"stateMutability": "payable",
			"type": "function"
		},
		{
			"constant": false,
			"inputs": [
				{
					"name": "user",
					"type": "address"
				}
			],
			"name": "startExit",
			"outputs": [],
			"payable": false,
			"stateMutability": "nonpayable",
			"type": "function"
		},
		{
			"constant": false,
			"inputs": [
				{
					"name": "user",
					"type": "address[2]"
				},
				{
					"name": "weiBalances",
					"type": "uint256[2]"
				},
				{
					"name": "tokenBalances",
					"type": "uint256[2]"
				},
				{
					"name": "pendingWeiUpdates",
					"type": "uint256[4]"
				},
				{
					"name": "pendingTokenUpdates",
					"type": "uint256[4]"
				},
				{
					"name": "txCount",
					"type": "uint256[2]"
				},
				{
					"name": "threadRoot",
					"type": "bytes32"
				},
				{
					"name": "threadCount",
					"type": "uint256"
				},
				{
					"name": "timeout",
					"type": "uint256"
				},
				{
					"name": "sigHub",
					"type": "string"
				},
				{
					"name": "sigUser",
					"type": "string"
				}
			],
			"name": "startExitWithUpdate",
			"outputs": [],
			"payable": false,
			"stateMutability": "nonpayable",
			"type": "function"
		},
		{
			"constant": false,
			"inputs": [
				{
					"name": "user",
					"type": "address[2]"
				},
				{
					"name": "weiBalances",
					"type": "uint256[2]"
				},
				{
					"name": "tokenBalances",
					"type": "uint256[2]"
				},
				{
					"name": "pendingWeiUpdates",
					"type": "uint256[4]"
				},
				{
					"name": "pendingTokenUpdates",
					"type": "uint256[4]"
				},
				{
					"name": "txCount",
					"type": "uint256[2]"
				},
				{
					"name": "threadRoot",
					"type": "bytes32"
				},
				{
					"name": "threadCount",
					"type": "uint256"
				},
				{
					"name": "timeout",
					"type": "uint256"
				},
				{
					"name": "sigHub",
					"type": "string"
				},
				{
					"name": "sigUser",
					"type": "string"
				}
			],
			"name": "emptyChannelWithChallenge",
			"outputs": [],
			"payable": false,
			"stateMutability": "nonpayable",
			"type": "function"
		},
		{
			"constant": false,
			"inputs": [
				{
					"name": "user",
					"type": "address"
				}
			],
			"name": "emptyChannel",
			"outputs": [],
			"payable": false,
			"stateMutability": "nonpayable",
			"type": "function"
		},
		{
			"constant": false,
			"inputs": [
				{
					"name": "user",
					"type": "address"
				},
				{
					"name": "sender",
					"type": "address"
				},
				{
					"name": "receiver",
					"type": "address"
				},
				{
					"name": "threadId",
					"type": "uint256"
				},
				{
					"name": "weiBalances",
					"type": "uint256[2]"
				},
				{
					"name": "tokenBalances",
					"type": "uint256[2]"
				},
				{
					"name": "proof",
					"type": "bytes"
				},
				{
					"name": "sig",
					"type": "string"
				}
			],
			"name": "startExitThread",
			"outputs": [],
			"payable": false,
			"stateMutability": "nonpayable",
			"type": "function"
		},
		{
			"constant": false,
			"inputs": [
				{
					"name": "user",
					"type": "address"
				},
				{
					"name": "threadMembers",
					"type": "address[2]"
				},
				{
					"name": "threadId",
					"type": "uint256"
				},
				{
					"name": "weiBalances",
					"type": "uint256[2]"
				},
				{
					"name": "tokenBalances",
					"type": "uint256[2]"
				},
				{
					"name": "proof",
					"type": "bytes"
				},
				{
					"name": "sig",
					"type": "string"
				},
				{
					"name": "updatedWeiBalances",
					"type": "uint256[2]"
				},
				{
					"name": "updatedTokenBalances",
					"type": "uint256[2]"
				},
				{
					"name": "updatedTxCount",
					"type": "uint256"
				},
				{
					"name": "updateSig",
					"type": "string"
				}
			],
			"name": "startExitThreadWithUpdate",
			"outputs": [],
			"payable": false,
			"stateMutability": "nonpayable",
			"type": "function"
		},
		{
			"constant": false,
			"inputs": [
				{
					"name": "sender",
					"type": "address"
				},
				{
					"name": "receiver",
					"type": "address"
				},
				{
					"name": "threadId",
					"type": "uint256"
				},
				{
					"name": "weiBalances",
					"type": "uint256[2]"
				},
				{
					"name": "tokenBalances",
					"type": "uint256[2]"
				},
				{
					"name": "txCount",
					"type": "uint256"
				},
				{
					"name": "sig",
					"type": "string"
				}
			],
			"name": "challengeThread",
			"outputs": [],
			"payable": false,
			"stateMutability": "nonpayable",
			"type": "function"
		},
		{
			"constant": false,
			"inputs": [
				{
					"name": "user",
					"type": "address"
				},
				{
					"name": "sender",
					"type": "address"
				},
				{
					"name": "receiver",
					"type": "address"
				},
				{
					"name": "threadId",
					"type": "uint256"
				},
				{
					"name": "weiBalances",
					"type": "uint256[2]"
				},
				{
					"name": "tokenBalances",
					"type": "uint256[2]"
				},
				{
					"name": "proof",
					"type": "bytes"
				},
				{
					"name": "sig",
					"type": "string"
				}
			],
			"name": "emptyThread",
			"outputs": [],
			"payable": false,
			"stateMutability": "nonpayable",
			"type": "function"
		},
		{
			"constant": false,
			"inputs": [
				{
					"name": "user",
					"type": "address"
				}
			],
			"name": "nukeThreads",
			"outputs": [],
			"payable": false,
			"stateMutability": "nonpayable",
			"type": "function"
		},
		{
			"constant": true,
			"inputs": [
				{
					"name": "user",
					"type": "address"
				}
			],
			"name": "getChannelBalances",
			"outputs": [
				{
					"name": "weiHub",
					"type": "uint256"
				},
				{
					"name": "weiUser",
					"type": "uint256"
				},
				{
					"name": "weiTotal",
					"type": "uint256"
				},
				{
					"name": "tokenHub",
					"type": "uint256"
				},
				{
					"name": "tokenUser",
					"type": "uint256"
				},
				{
					"name": "tokenTotal",
					"type": "uint256"
				}
			],
			"payable": false,
			"stateMutability": "view",
			"type": "function"
		},
		{
			"constant": true,
			"inputs": [
				{
					"name": "user",
					"type": "address"
				}
			],
			"name": "getChannelDetails",
			"outputs": [
				{
					"name": "txCountGlobal",
					"type": "uint256"
				},
				{
					"name": "txCountChain",
					"type": "uint256"
				},
				{
					"name": "threadRoot",
					"type": "bytes32"
				},
				{
					"name": "threadCount",
					"type": "uint256"
				},
				{
					"name": "exitInitiator",
					"type": "address"
				},
				{
					"name": "channelClosingTime",
					"type": "uint256"
				},
				{
					"name": "status",
					"type": "uint8"
				}
			],
			"payable": false,
			"stateMutability": "view",
			"type": "function"
		}
	],
	"bytecode": "0x60806040523480156200001157600080fd5b5060405160608062005e9a83398101806040526200003391908101906200008e565b60008054600160a060020a03948516600160a060020a03199182161790915560019290925560028054919093169116179055620000f1565b6000620000798251620000e2565b9392505050565b6000620000798251620000ee565b600080600060608486031215620000a457600080fd5b6000620000b286866200006b565b9350506020620000c58682870162000080565b9250506040620000d8868287016200006b565b9150509250925092565b600160a060020a031690565b90565b615d9980620001016000396000f3006080604052600436106101235763ffffffff60e060020a6000350416629e8690811461012557806301dd7da9146101505780630955acd41461017057806325c29be01461019057806332b573e1146101b0578063365a86fc146101c557806345a92009146101e75780634e2a5c5a14610219578063686bf4601461023957806369f817761461025957806372cc174c1461027957806374c25c20146102995780637651a86b146102cc5780637dce34f7146102ec5780639bcf63cd1461031d578063a1e1fe9314610332578063a3f4df7e14610352578063ad872d0314610374578063b04993ef14610389578063bab46259146103a9578063c8b2f7d6146103cb578063ea682e37146103eb578063f3f480d9146103fe578063ffa1ad7414610413575b005b34801561013157600080fd5b5061013a610428565b6040516101479190615a1e565b60405180910390f35b34801561015c57600080fd5b5061012361016b366004614397565b61042e565b34801561017c57600080fd5b5061012361018b36600461404f565b610604565b34801561019c57600080fd5b506101236101ab366004613f9a565b61099b565b3480156101bc57600080fd5b5061013a610c1e565b3480156101d157600080fd5b506101da610c24565b60405161014791906153a7565b3480156101f357600080fd5b50610207610202366004613d6e565b610c33565b60405161014796959493929190615ae4565b34801561022557600080fd5b50610123610234366004613d6e565b610d8f565b34801561024557600080fd5b50610123610254366004613e92565b611159565b34801561026557600080fd5b5061012361027436600461425a565b611396565b34801561028557600080fd5b50610123610294366004613d6e565b61168c565b3480156102a557600080fd5b506102b96102b4366004613d6e565b611818565b6040516101479796959493929190615a7c565b3480156102d857600080fd5b506101236102e7366004613d6e565b611982565b3480156102f857600080fd5b5061030c610307366004613d6e565b611c8a565b604051610147959493929190615573565b34801561032957600080fd5b5061013a611cc9565b34801561033e57600080fd5b5061012361034d36600461425a565b611d5c565b34801561035e57600080fd5b50610367612198565b604051610147919061568d565b34801561038057600080fd5b5061013a6121c4565b34801561039557600080fd5b506101236103a4366004613db2565b6121dc565b3480156103b557600080fd5b506103be612871565b60405161014791906155bf565b3480156103d757600080fd5b506101236103e6366004613db2565b612880565b6101236103f9366004614166565b612aaf565b34801561040a57600080fd5b5061013a612daf565b34801561041f57600080fd5b50610367612db5565b60035481565b60075460ff161561045d5760405160e560020a62461bcd028152600401610454906157ce565b60405180910390fd5b6007805460ff1916600117905560005433600160a060020a039091161461048357600080fd5b8161048c6121c4565b10156104ad5760405160e560020a62461bcd0281526004016104549061586e565b806104b6611cc9565b10156104d75760405160e560020a62461bcd028152600401610454906157fe565b60008054604051600160a060020a039091169184156108fc02918591818181858888f19350505050158015610510573d6000803e3d6000fd5b5060025460005460405160e060020a63a9059cbb028152600160a060020a039283169263a9059cbb9261054a9291169085906004016153e3565b602060405180830381600087803b15801561056457600080fd5b505af1158015610578573d6000803e3d6000fd5b505050506040513d601f19601f8201168201806040525061059c919081019061435b565b15156105bd5760405160e560020a62461bcd0281526004016104549061582e565b7f60a3ff34ec09137572f54ff0fde3035ae459c9bebfdb1643a897de83211ebdf082826040516105ee929190615a6e565b60405180910390a150506007805460ff19169055565b600754600090819060ff161561062f5760405160e560020a62461bcd028152600401610454906157ce565b6007805460ff19166001179055600160a060020a038d16600090815260056020526040902091506002600c83015460ff16600281111561066b57fe5b1461068b5760405160e560020a62461bcd0281526004016104549061599e565b600054600160a060020a03163314806106ac575033600160a060020a038e16145b15156106cd5760405160e560020a62461bcd028152600401610454906158fe565b8b51600160a060020a038e8116911614806106f7575060208c0151600160a060020a038e81169116145b15156107185760405160e560020a62461bcd02815260040161045490615a0e565b60208a015115801561072c57506020890151155b151561074d5760405160e560020a62461bcd0281526004016104549061588e565b8b51600160a060020a03166000908152600660205260408120908d60016020020151600160a060020a0316600160a060020a0316815260200190815260200160002060008c81526020019081526020016000209050806005015460001415156107cb5760405160e560020a62461bcd028152600401610454906157ae565b6107ef8c600060200201518d600160200201518d8d8d60008e8e8a60080154612dd7565b600084116108125760405160e560020a62461bcd0281526004016104549061596e565b89516108358760015b60200201518860005b60200201519063ffffffff6130d416565b146108555760405160e560020a62461bcd028152600401610454906158ae565b885161086b8660015b6020020151876000610824565b1461088b5760405160e560020a62461bcd028152600401610454906157de565b8b516020808e015160408051928301905260008083526108b693928f918b918b918b91908b90612dd7565b6108c281876002613ac0565b506108d36002808301908790613ac0565b50600481018490556001546108ef90429063ffffffff6130d416565b60058201558b60016020020151600160a060020a03168c60006020020151600160a060020a0316600080516020615ce08339815191528f8e6000809054906101000a9004600160a060020a0316600160a060020a031633600160a060020a03161461095b57600161095e565b60005b600487015460405161097a9493929189916002830191906154fb565b60405180910390a350506007805460ff191690555050505050505050505050565b60075460009060ff16156109c45760405160e560020a62461bcd028152600401610454906157ce565b6007805460ff1916600117905560005433600160a060020a0390911614806109f4575033600160a060020a038916145b80610a07575033600160a060020a038816145b1515610a285760405160e560020a62461bcd028152600401610454906159fe565b50600160a060020a038088166000908152600660209081526040808320938a16835292815282822088835290522060058101544210610a7c5760405160e560020a62461bcd0281526004016104549061587e565b60048101548311610aa25760405160e560020a62461bcd028152600401610454906159ee565b610abc81600101548260005b01549063ffffffff6130d416565b610ac786600161085e565b14610ae75760405160e560020a62461bcd0281526004016104549061575e565b6003810154610afb90600283016000610aae565b6020850151610b0c90866000610824565b14610b2c5760405160e560020a62461bcd0281526004016104549061584e565b6001810154602086015110801590610b4c57506003810154602085015110155b1515610b6d5760405160e560020a62461bcd0281526004016104549061572e565b610b928888888888886020604051908101604052806000815250896000600102612dd7565b610b9e81866002613ac0565b50610baf6002808301908690613ac0565b5060048101839055604051600160a060020a0380891691908a16907f738f3bb8a8a2b4d0dc29a4076d3a4e41e510cd1044877421546903039766ad1990610c02908a903390879060028201908b90615a2c565b60405180910390a350506007805460ff19169055505050505050565b60045481565b600054600160a060020a031681565b600080600080600080610c44613afe565b600160a060020a03881660009081526005602052604090819020815161016081019092528161010081018260038282826020028201915b815481526020019060010190808311610c7b5750505091835250506040805160608101918290526020909201919060038481019182845b815481526020019060010190808311610cb2575050509183525050604080518082019182905260209092019190600684019060029082845b815481526020019060010190808311610cea5750505091835250506008820154602082015260098201546040820152600a820154600160a060020a03166060820152600b8201546080820152600c82015460a09091019060ff166002811115610d4f57fe5b6002811115610d5a57fe5b9052508051805160208083015160409384015194820151805192810151940151929d909c50939a509850909650945092505050565b60075460009060ff1615610db85760405160e560020a62461bcd028152600401610454906157ce565b6007805460ff19166001179055600054600160a060020a0383811691161415610df65760405160e560020a62461bcd0281526004016104549061593e565b600160a060020a038216301415610e225760405160e560020a62461bcd028152600401610454906159ae565b50600160a060020a03811660009081526005602052604090206001600c82015460ff166002811115610e5057fe5b14610e705760405160e560020a62461bcd0281526004016104549061574e565b4281600b01541080610eb65750600a810154600160a060020a03163314801590610eb65750600054600160a060020a0316331480610eb6575033600160a060020a038316145b1515610ed75760405160e560020a62461bcd028152600401610454906159be565b610f048160015b01548254610ef8908460025b01549063ffffffff6130f116565b9063ffffffff6130f116565b8160020155610f266003820160015b0154600383018054610ef8916002610eea565b6005820155610f4c8160015b0154610ef88360005b01546003549063ffffffff6130f116565b6003556001810154604051600160a060020a0384169180156108fc02916000818181858888f19350505050158015610f88573d6000803e3d6000fd5b5060008181015560008160010155610fbd6003820160015b0154610ef86003840160005b01546004549063ffffffff6130f116565b600455600254600160a060020a031663a9059cbb8360038401600101546040518363ffffffff1660e060020a028152600401610ffa9291906153e3565b602060405180830381600087803b15801561101457600080fd5b505af1158015611028573d6000803e3d6000fd5b505050506040513d601f19601f8201168201806040525061104c919081019061435b565b151561106d5760405160e560020a62461bcd0281526004016104549061571e565b600060038201819055600482018190556009820154111561109c57600c8101805460ff191660021790556110b0565b6000600b820155600c8101805460ff191690555b600a81018054600160a060020a0319169055600054600160a060020a0383811691600080516020615d40833981519152911633146110ef5760016110f2565b60005b6040805180820182528554815260018601546020808301919091528251808401845260038801548152600488015491810191909152600887015460098801549351611143959460068a019291615b33565b60405180910390a250506007805460ff19169055565b60075460009060ff16156111825760405160e560020a62461bcd028152600401610454906157ce565b6007805460ff1916600117905560005433600160a060020a03909116146111a857600080fd5b50600160a060020a038b1660009081526005602052604090206111d281878c8c8c8c896001613108565b604080518082018252600160a060020a03808f1682528d166020808301919091528251808201845260008082528451808601909552845260019184019190915261122d928d918d918d918d918d918d918d918d918d906133cc565b61123a818b8b8b8b613795565b6060880151604051600160a060020a038d169180156108fc02916000818181858888f19350505050158015611273573d6000803e3d6000fd5b50600254606088015160405160e060020a63a9059cbb028152600160a060020a039092169163a9059cbb916112ad918f91906004016153e3565b602060405180830381600087803b1580156112c757600080fd5b505af11580156112db573d6000803e3d6000fd5b505050506040513d601f19601f820116820180604052506112ff919081019061435b565b15156113205760405160e560020a62461bcd0281526004016104549061571e565b61132f60068201876002613ac0565b506008810185905560098101849055604051600160a060020a038d1690600080516020615d0083398151915290611376906000908e908e908e908e908e908e908e906155cd565b60405180910390a250506007805460ff1916905550505050505050505050565b60075460009060ff16156113bf5760405160e560020a62461bcd028152600401610454906157ce565b506007805460ff191660011790558a51600160a060020a0316600090815260056020526040812090600c82015460ff1660028111156113fa57fe5b1461141a5760405160e560020a62461bcd0281526004016104549061578e565b600054600160a060020a031633148061143c57508b51600160a060020a031633145b151561145d5760405160e560020a62461bcd0281526004016104549061598e565b831561147e5760405160e560020a62461bcd0281526004016104549061583e565b6114b08c8c8c8c8c8c8c8c8c8c8c604080519081016040528060011515151581526020016001151515158152506133cc565b60068101548751116114d75760405160e560020a62461bcd028152600401610454906158be565b6007810154602088015110156115025760405160e560020a62461bcd028152600401610454906156be565b806002015461151b8c60015b60200201518d6000610824565b111561153c5760405160e560020a62461bcd028152600401610454906156de565b60058101546115558b60015b60200201518c6000610824565b11156115765760405160e560020a62461bcd0281526004016104549061585e565b6007810154602088015114156115a457611591818c8b613866565b61159f816003018b8a613866565b6115bd565b6115af818c8b6138f4565b6115bd816003018b8a6138f4565b865160068201556008810186905560098101859055600a81018054600160a060020a031916331790556001546115f49042906130d4565b600b820155600c8101805460ff191660011790558b51600054600160a060020a0391821691600080516020615cc0833981519152913391161461163857600161163b565b60005b6040805180820182528554815260018601546020808301919091528251808401845260038801548152600488015491810191909152600887015460098801549351611376959460068a019291615b33565b60075460009060ff16156116b55760405160e560020a62461bcd028152600401610454906157ce565b6007805460ff19166001179055600054600160a060020a03838116911614156116f35760405160e560020a62461bcd0281526004016104549061593e565b600160a060020a03821630141561171f5760405160e560020a62461bcd028152600401610454906159ae565b50600160a060020a038116600090815260056020526040812090600c82015460ff16600281111561174c57fe5b1461176c5760405160e560020a62461bcd0281526004016104549061578e565b600054600160a060020a031633148061178d575033600160a060020a038316145b15156117ae5760405160e560020a62461bcd0281526004016104549061598e565b600a81018054600160a060020a031916331790556001546117d690429063ffffffff6130d416565b600b820155600c8101805460ff19166001179055600054600160a060020a0383811691600080516020615cc083398151915291339116146110ef5760016110f2565b600080600080600080600061182b613afe565b600160a060020a03891660009081526005602052604090819020815161016081019092528161010081018260038282826020028201915b8154815260200190600101908083116118625750505091835250506040805160608101918290526020909201919060038481019182845b815481526020019060010190808311611899575050509183525050604080518082019182905260209092019190600684019060029082845b8154815260200190600101908083116118d15750505091835250506008820154602082015260098201546040820152600a820154600160a060020a03166060820152600b8201546080820152600c82015460a09091019060ff16600281111561193657fe5b600281111561194157fe5b905250604081015180516020909101516060830151608084015160a085015160c086015160e090960151949f939e50919c509a509850919650945092505050565b6007546000908190819060ff16156119af5760405160e560020a62461bcd028152600401610454906157ce565b6007805460ff19166001179055600054600160a060020a03858116911614156119ed5760405160e560020a62461bcd0281526004016104549061593e565b600160a060020a038416301415611a195760405160e560020a62461bcd028152600401610454906159ae565b600160a060020a038416600090815260056020526040902092506002600c84015460ff166002811115611a4857fe5b14611a685760405160e560020a62461bcd0281526004016104549061591e565b42611a93611a82600a60015461395a90919063ffffffff16565b600b8601549063ffffffff6130d416565b10611ab35760405160e560020a62461bcd028152600401610454906156ae565b611abe836002610f3b565b6003556002830154604051600160a060020a0386169180156108fc02916000818181858888f19350505050158015611afa573d6000803e3d6000fd5b508260020154915060008360020155611b17600384016002610fac565b6004908155600254600585015460405160e060020a63a9059cbb028152600160a060020a039092169263a9059cbb92611b549289929091016153e3565b602060405180830381600087803b158015611b6e57600080fd5b505af1158015611b82573d6000803e3d6000fd5b505050506040513d601f19601f82011682018060405250611ba6919081019061435b565b1515611bc75760405160e560020a62461bcd0281526004016104549061571e565b506005820180546000918290556009840182905560088401829055600b8401829055600c8401805460ff19169055604080518082018252855481526001860154602080830191909152825180840184526003880154815260048801549181019190915291519293600160a060020a038816937f02d2d0f262d032138bbd82feccd6d357a4441f394333cfa7d61792f44a70a0ed93611c72933393899389939160068d019181906154d2565b60405180910390a250506007805460ff191690555050565b600560205260009081526040902060088101546009820154600a830154600b840154600c9094015492939192600160a060020a03909116919060ff1685565b6004805460025460405160e060020a6370a08231028152600093611d569392600160a060020a0316916370a0823191611d04913091016153a7565b602060405180830381600087803b158015611d1e57600080fd5b505af1158015611d32573d6000803e3d6000fd5b505050506040513d601f19601f82011682018060405250610ef89190810190614379565b90505b90565b60075460009060ff1615611d855760405160e560020a62461bcd028152600401610454906157ce565b506007805460ff191660019081179091558b51600160a060020a0316600090815260056020526040902090600c82015460ff166002811115611dc357fe5b14611de35760405160e560020a62461bcd0281526004016104549061574e565b600b8101544210611e095760405160e560020a62461bcd0281526004016104549061570e565b600a810154600160a060020a0316331415611e395760405160e560020a62461bcd0281526004016104549061579e565b600054600160a060020a0316331480611e5b57508b51600160a060020a031633145b1515611e7c5760405160e560020a62461bcd0281526004016104549061589e565b8315611e9d5760405160e560020a62461bcd0281526004016104549061583e565b611ecf8c8c8c8c8c8c8c8c8c8c8c604080519081016040528060011515151581526020016001151515158152506133cc565b6006810154875111611ef65760405160e560020a62461bcd028152600401610454906158be565b600781015460208801511015611f215760405160e560020a62461bcd028152600401610454906156be565b8060020154611f318c600161150e565b1115611f525760405160e560020a62461bcd028152600401610454906156de565b6005810154611f628b6001611548565b1115611f835760405160e560020a62461bcd0281526004016104549061585e565b600781015460208801511415611fb157611f9e818c8b613866565b611fac816003018b8a613866565b611fca565b611fbc818c8b6138f4565b611fca816003018b8a6138f4565b611fd5816001610ede565b8160020155611fe8600382016001610f13565b6005820155611ff8816001610f32565b6003558b516001820154604051600160a060020a039092169181156108fc0291906000818181858888f19350505050158015612038573d6000803e3d6000fd5b5060008181015560008160010155612054600382016001610fa0565b60049081556002548d518383015460405160e060020a63a9059cbb028152600160a060020a039093169363a9059cbb93612090939291016153e3565b602060405180830381600087803b1580156120aa57600080fd5b505af11580156120be573d6000803e3d6000fd5b505050506040513d601f19601f820116820180604052506120e2919081019061435b565b15156121035760405160e560020a62461bcd0281526004016104549061571e565b6000600382018190556004820181905587516006830155600882018790556009820186905585111561214357600c8101805460ff19166002179055612157565b6000600b820155600c8101805460ff191690555b600a81018054600160a060020a03191690558b51600054600160a060020a0391821691600080516020615d408339815191529116331461163857600161163b565b60408051808201909152600f8152608960020a6e21b430b73732b61026b0b730b3b2b902602082015281565b600354600090611d569030319063ffffffff6130f116565b600754600090819060ff16156122075760405160e560020a62461bcd028152600401610454906157ce565b6007805460ff19166001179055600160a060020a038a16600090815260056020526040902091506002600c83015460ff16600281111561224357fe5b146122635760405160e560020a62461bcd0281526004016104549061591e565b600054600160a060020a0316331480612284575033600160a060020a038b16145b15156122a55760405160e560020a62461bcd028152600401610454906156ce565b88600160a060020a03168a600160a060020a031614806122d6575087600160a060020a03168a600160a060020a0316145b15156122f75760405160e560020a62461bcd02815260040161045490615a0e565b602086015115801561230b57506020850151155b151561232c5760405160e560020a62461bcd0281526004016104549061588e565b50600160a060020a038089166000908152600660209081526040808320938b1683529281528282208983529052206005810154158015906123705750428160050154105b15156123915760405160e560020a62461bcd0281526004016104549061592e565b8060060189600160a060020a03168b600160a060020a0316146123b55760016123b8565b60005b60ff16600281106123c557fe5b602081049091015460ff601f9092166101000a900416156123fb5760405160e560020a62461bcd0281526004016104549061581e565b612411898989898960008a8a8a60080154612dd7565b8551600182015461242490836000610aae565b146124445760405160e560020a62461bcd028152600401610454906158de565b8451600382015461245a90600284016000610aae565b1461247a5760405160e560020a62461bcd0281526004016104549061594e565b6124928160010154610ef88360000154856002610eea565b82600201556124b86002820160010154610ef86002840160000154600386016002610eea565b600583015560018101546124d190610ef8836000610f3b565b600355600160a060020a038a81169089161415612527576001810154604051600160a060020a038c169180156108fc02916000818181858888f19350505050158015612521573d6000803e3d6000fd5b50612579565b88600160a060020a03168a600160a060020a03161415612579578054604051600160a060020a038c169180156108fc02916000818181858888f19350505050158015612577573d6000803e3d6000fd5b505b600381015461259090610ef8600284016000610fac565b600455600160a060020a038a8116908916141561265857600254600382015460405160e060020a63a9059cbb028152600160a060020a039092169163a9059cbb916125e0918e91906004016153e3565b602060405180830381600087803b1580156125fa57600080fd5b505af115801561260e573d6000803e3d6000fd5b505050506040513d601f19601f82011682018060405250612632919081019061435b565b15156126535760405160e560020a62461bcd028152600401610454906159ce565b61271e565b88600160a060020a03168a600160a060020a0316141561271e57600280549082015460405160e060020a63a9059cbb028152600160a060020a039092169163a9059cbb916126ab918e91906004016153e3565b602060405180830381600087803b1580156126c557600080fd5b505af11580156126d9573d6000803e3d6000fd5b505050506040513d601f19601f820116820180604052506126fd919081019061435b565b151561271e5760405160e560020a62461bcd0281526004016104549061597e565b6001816006018a600160a060020a03168c600160a060020a031614612744576001612747565b60005b60ff166002811061275457fe5b602091828204019190066101000a81548160ff02191690831515021790555061278b600183600901546130f190919063ffffffff16565b6009830181905515156127b357600060088301819055600b830155600c8201805460ff191690555b87600160a060020a031689600160a060020a03167ff45587a14ff8928bdd940cbf0564b42320b5e46a8fdecaf8a98a9eab63ab1f968c8a33604080519081016040528089600001600060038110151561280857fe5b0154815260018a015460209182015260408051808201825260038c0154815260048c01549281019290925260088b015460098c0154915161285397969594939260068e0192916153fe565b60405180910390a350506007805460ff191690555050505050505050565b600254600160a060020a031681565b600754600090819060ff16156128ab5760405160e560020a62461bcd028152600401610454906157ce565b6007805460ff19166001179055600160a060020a038a16600090815260056020526040902091506002600c83015460ff1660028111156128e757fe5b146129075760405160e560020a62461bcd0281526004016104549061599e565b600054600160a060020a0316331480612928575033600160a060020a038b16145b15156129495760405160e560020a62461bcd028152600401610454906158fe565b88600160a060020a03168a600160a060020a0316148061297a575087600160a060020a03168a600160a060020a0316145b151561299b5760405160e560020a62461bcd02815260040161045490615a0e565b60208601511580156129af57506020850151155b15156129d05760405160e560020a62461bcd0281526004016104549061588e565b50600160a060020a038089166000908152600660209081526040808320938b168352928152828220898352905220600581015415612a235760405160e560020a62461bcd028152600401610454906157ae565b612a39898989898960008a8a8a60080154612dd7565b612a4581876002613ac0565b50612a566002808301908790613ac0565b50600154612a6b90429063ffffffff6130d416565b60058201556004810154604051600160a060020a03808b1692908c1691600080516020615ce083398151915291612853918f918d9133918991600283019190615477565b60075460009060ff1615612ad85760405160e560020a62461bcd028152600401610454906157ce565b6007805460ff1916600117905587600260200201513414612b0e5760405160e560020a62461bcd028152600401610454906159de565b6005600033600160a060020a0316600160a060020a031681526020019081526020016000209050612b4681878c8c8c8c896000613108565b604080518082018252338152600160a060020a038d1660208083019190915282518082018452600080825284518086019095526001855291840191909152612ba0928d918d918d918d918d918d918d918d918d91906133cc565b600254604080890151905160e060020a6323b872dd028152600160a060020a03909216916323b872dd91612bda91339130916004016153bb565b602060405180830381600087803b158015612bf457600080fd5b505af1158015612c08573d6000803e3d6000fd5b505050506040513d601f19601f82011682018060405250612c2c919081019061435b565b1515612c4d5760405160e560020a62461bcd028152600401610454906158ee565b612c5a818b8b8b8b613795565b6060880151604051600160a060020a038d169180156108fc02916000818181858888f19350505050158015612c93573d6000803e3d6000fd5b50600254606088015160405160e060020a63a9059cbb028152600160a060020a039092169163a9059cbb91612ccd918f91906004016153e3565b602060405180830381600087803b158015612ce757600080fd5b505af1158015612cfb573d6000803e3d6000fd5b505050506040513d601f19601f82011682018060405250612d1f919081019061435b565b1515612d405760405160e560020a62461bcd0281526004016104549061571e565b612d4f60068201876002613ac0565b5060088101859055600981018490556040513390600080516020615d0083398151915290612d90906001908e908e908e908e9060068a01908e908e9061563b565b60405180910390a250506007805460ff19169055505050505050505050565b60015481565b604080518082019091526005815260d860020a64302e302e3102602082015281565b6000600160a060020a038a8116908a161415612e085760405160e560020a62461bcd028152600401610454906157be565b600054600160a060020a038b8116911614801590612e345750600054600160a060020a038a8116911614155b1515612e555760405160e560020a62461bcd028152600401610454906158ce565b600160a060020a038a163014801590612e775750600160a060020a0389163014155b1515612e985760405160e560020a62461bcd028152600401610454906156fe565b308a8a8a8a8a8a6040516020018088600160a060020a0316600160a060020a0316606060020a02815260140187600160a060020a0316600160a060020a0316606060020a02815260140186600160a060020a0316600160a060020a0316606060020a02815260140185815260200184600260200280838360005b83811015612f2a578181015183820152602001612f12565b5050505090500183600260200280838360005b83811015612f55578181015183820152602001612f3d565b505050509050018281526020019750505050505050506040516020818303038152906040526040518082805190602001908083835b60208310612fa95780518252601f199092019160209182019101612f8a565b5181516020939093036101000a60001901801990911692169190911790526040519201829003822060e060020a631052506f028352945073__ECTools_______________________________9350631052506f92506130119185915087908f90600401615544565b60206040518083038186803b15801561302957600080fd5b505af415801561303d573d6000803e3d6000fd5b505050506040513d601f19601f82011682018060405250613061919081019061435b565b15156130825760405160e560020a62461bcd028152600401610454906156ee565b81151580613097575081158015613097575084155b156130c8576130a7818584613988565b15156130c85760405160e560020a62461bcd0281526004016104549061576e565b50505050505050505050565b6000828201838110156130e657600080fd5b8091505b5092915050565b6000808383111561310157600080fd5b5050900390565b6000600c89015460ff16600281111561311d57fe5b1461313d5760405160e560020a62461bcd0281526004016104549061578e565b81158061314957508142105b151561316a5760405160e560020a62461bcd0281526004016104549061595e565b60068801548751116131915760405160e560020a62461bcd028152600401610454906158be565b6007880154602088015110156131bc5760405160e560020a62461bcd028152600401610454906156be565b87600201546131cc87600161081b565b11156131ed5760405160e560020a62461bcd028152600401610454906156de565b60058801546131fd86600161085e565b111561321e5760405160e560020a62461bcd0281526004016104549061585e565b801561329d5761322c6121c4565b604085015161323d90866000610824565b111561325e5760405160e560020a62461bcd0281526004016104549061590e565b613266611cc9565b604084015161327790856000610824565b11156132985760405160e560020a62461bcd0281526004016104549061580e565b6132f3565b6132a56121c4565b845111156132c85760405160e560020a62461bcd0281526004016104549061590e565b6132d0611cc9565b835111156132f35760405160e560020a62461bcd0281526004016104549061580e565b60608401516020808601519088015161332192916133159182908b6000610824565b9063ffffffff6130d416565b604085015161333e906133158760005b60200201518c6002610aae565b101561335f5760405160e560020a62461bcd0281526004016104549061569e565b60608301516020808501519087015161338192916133159182908a6000610824565b60408401516133a1906133158660005b602002015160038d016002610aae565b10156133c25760405160e560020a62461bcd0281526004016104549061577e565b5050505050505050565b600080548d51600160a060020a03908116911614156134005760405160e560020a62461bcd0281526004016104549061593e565b8c51600160a060020a031630141561342d5760405160e560020a62461bcd028152600401610454906159ae565b308d8d8d8d8d8d8d8d8d604051602001808b600160a060020a0316600160a060020a0316606060020a0281526014018a600260200280838360005b83811015613480578181015183820152602001613468565b5050505090500189600260200280838360005b838110156134ab578181015183820152602001613493565b5050505090500188600260200280838360005b838110156134d65781810151838201526020016134be565b5050505090500187600460200280838360005b838110156135015781810151838201526020016134e9565b5050505090500186600460200280838360005b8381101561352c578181015183820152602001613514565b5050505090500185600260200280838360005b8381101561355757818101518382015260200161353f565b5050505090500184600019166000191681526020018381526020018281526020019a50505050505050505050506040516020818303038152906040526040518082805190602001908083835b602083106135c25780518252601f1990920191602091820191016135a3565b5181516020939093036101000a600019018019909116921691909117905260405192018290039091209350849250600091506135fb9050565b6020020151156136c15760405160e060020a63dca9541902815273__ECTools_______________________________9063dca95419906136419084908890600401615524565b60206040518083038186803b15801561365957600080fd5b505af415801561366d573d6000803e3d6000fd5b505050506040513d601f19601f820116820180604052506136919190810190613d94565b600054600160a060020a039081169116146136c15760405160e560020a62461bcd0281526004016104549061573e565b6020820151156137865760405160e060020a63dca9541902815273__ECTools_______________________________9063dca95419906137079084908790600401615524565b60206040518083038186803b15801561371f57600080fd5b505af4158015613733573d6000803e3d6000fd5b505050506040513d601f19601f820116820180604052506137579190810190613d94565b8d51600160a060020a039081169116146137865760405160e560020a62461bcd028152600401610454906157ee565b50505050505050505050505050565b6137a0858584613866565b6137ae856003018483613866565b60608201516020830151604084015184516003546137d89493610ef89390928492613315916130d4565b60035560608101516020820151604083015183516004546138059493610ef89390928492613315916130d4565b60045560608201516020830151604084015161382d9291610ef8918290613315886000613331565b60028601556060810151602082015160408301516138579291610ef8918290613315876000613391565b60038601600201555050505050565b6020810151815111156138a55761389e61389682600160200201518360005b60200201519063ffffffff6130f116565b836000610824565b83556138aa565b815183555b6060810151604082015111156138e3576138d86138d08260036020020151836002613885565b836001610824565b8360015b01556138ef565b60208201518360015b01555b505050565b60208101518151111561390a578151835561391f565b805161391c9061389690836001613885565b83555b60608101516040820151111561393c5760208201518360016138dc565b6139526138d08260026020020151836003613885565b8360016138ec565b60008083151561396d57600091506130ea565b5082820282848281151561397d57fe5b04146130e657600080fd5b6000838160405b85518111613ab35785810151915081831015613a2a57604080516020808201869052818301859052825180830384018152606090920192839052815191929182918401908083835b602083106139f65780518252601f1990920191602091820191016139d7565b6001836020036101000a03801982511681845116808217855250505050505090500191505060405180910390209250613aab565b604080516020808201859052818301869052825180830384018152606090920192839052815191929182918401908083835b60208310613a7b5780518252601f199092019160209182019101613a5c565b6001836020036101000a038019825116818451168082178552505050505050905001915050604051809103902092505b60200161398f565b5050919091149392505050565b8260028101928215613aee579160200282015b82811115613aee578251825591602001919060010190613ad3565b50613afa929150613b56565b5090565b6101a060405190810160405280613b13613b70565b8152602001613b20613b70565b8152602001613b2d613b8f565b815260006020820181905260408201819052606082018190526080820181905260a09091015290565b611d5991905b80821115613afa5760008155600101613b5c565b6060604051908101604052806003906020820280388339509192915050565b60408051808201825290600290829080388339509192915050565b6000613bb68235615c0a565b9392505050565b6000613bb68251615c0a565b6000601f82018313613bda57600080fd5b6002613bed613be882615baa565b615b84565b91508183856020840282011115613c0357600080fd5b60005b83811015613c2f5781613c198882613baa565b8452506020928301929190910190600101613c06565b5050505092915050565b6000601f82018313613c4a57600080fd5b6002613c58613be882615baa565b91508183856020840282011115613c6e57600080fd5b60005b83811015613c2f5781613c848882613d07565b8452506020928301929190910190600101613c71565b6000601f82018313613cab57600080fd5b6004613cb9613be882615baa565b91508183856020840282011115613ccf57600080fd5b60005b83811015613c2f5781613ce58882613d07565b8452506020928301929190910190600101613cd2565b6000613bb68251615c28565b6000613bb68235611d59565b6000601f82018313613d2457600080fd5b8135613d32613be882615bc7565b91508082526020830160208301858383011115613d4e57600080fd5b613d59838284615c59565b50505092915050565b6000613bb68251611d59565b600060208284031215613d8057600080fd5b6000613d8c8484613baa565b949350505050565b600060208284031215613da657600080fd5b6000613d8c8484613bbd565b600080600080600080600080610140898b031215613dcf57600080fd5b6000613ddb8b8b613baa565b9850506020613dec8b828c01613baa565b9750506040613dfd8b828c01613baa565b9650506060613e0e8b828c01613d07565b9550506080613e1f8b828c01613c39565b94505060c0613e308b828c01613c39565b9350506101008901356001604060020a03811115613e4d57600080fd5b613e598b828c01613d13565b9250506101208901356001604060020a03811115613e7657600080fd5b613e828b828c01613d13565b9150509295985092959890939650565b60008060008060008060008060008060006102808c8e031215613eb457600080fd5b6000613ec08e8e613baa565b9b50506020613ed18e828f01613baa565b9a50506040613ee28e828f01613c39565b9950506080613ef38e828f01613c39565b98505060c0613f048e828f01613c9a565b975050610140613f168e828f01613c9a565b9650506101c0613f288e828f01613c39565b955050610200613f3a8e828f01613d07565b945050610220613f4c8e828f01613d07565b935050610240613f5e8e828f01613d07565b9250506102608c01356001604060020a03811115613f7b57600080fd5b613f878e828f01613d13565b9150509295989b509295989b9093969950565b6000806000806000806000610120888a031215613fb657600080fd5b6000613fc28a8a613baa565b9750506020613fd38a828b01613baa565b9650506040613fe48a828b01613d07565b9550506060613ff58a828b01613c39565b94505060a06140068a828b01613c39565b93505060e06140178a828b01613d07565b9250506101008801356001604060020a0381111561403457600080fd5b6140408a828b01613d13565b91505092959891949750929550565b60008060008060008060008060008060006102008c8e03121561407157600080fd5b600061407d8e8e613baa565b9b5050602061408e8e828f01613bc9565b9a5050606061409f8e828f01613d07565b99505060806140b08e828f01613c39565b98505060c06140c18e828f01613c39565b9750506101008c01356001604060020a038111156140de57600080fd5b6140ea8e828f01613d13565b9650506101208c01356001604060020a0381111561410757600080fd5b6141138e828f01613d13565b9550506101406141258e828f01613c39565b9450506101806141378e828f01613c39565b9350506101c06141498e828f01613d07565b9250506101e08c01356001604060020a03811115613f7b57600080fd5b6000806000806000806000806000806102608b8d03121561418657600080fd5b60006141928d8d613baa565b9a505060206141a38d828e01613c39565b99505060606141b48d828e01613c39565b98505060a06141c58d828e01613c9a565b9750506101206141d78d828e01613c9a565b9650506101a06141e98d828e01613c39565b9550506101e06141fb8d828e01613d07565b94505061020061420d8d828e01613d07565b93505061022061421f8d828e01613d07565b9250506102408b01356001604060020a0381111561423c57600080fd5b6142488d828e01613d13565b9150509295989b9194979a5092959850565b60008060008060008060008060008060006102a08c8e03121561427c57600080fd5b60006142888e8e613bc9565b9b505060406142998e828f01613c39565b9a505060806142aa8e828f01613c39565b99505060c06142bb8e828f01613c9a565b9850506101406142cd8e828f01613c9a565b9750506101c06142df8e828f01613c39565b9650506102006142f18e828f01613d07565b9550506102206143038e828f01613d07565b9450506102406143158e828f01613d07565b9350506102608c01356001604060020a0381111561433257600080fd5b61433e8e828f01613d13565b9250506102808c01356001604060020a03811115613f7b57600080fd5b60006020828403121561436d57600080fd5b6000613d8c8484613cfb565b60006020828403121561438b57600080fd5b6000613d8c8484613d62565b600080604083850312156143aa57600080fd5b60006143b68585613d07565b92505060206143c785828601613d07565b9150509250929050565b6143da81615c0a565b82525050565b6143e981615bee565b6143f282611d59565b60005b82811015614422576144088583516144ad565b61441182615bfe565b6020959095019491506001016143f5565b5050505050565b61443281615bee565b61443b82611d59565b60005b82811015614422576144518583546144ad565b61445a82615c04565b60209590950194915060010161443e565b61447481615bf4565b61447d82611d59565b60005b82811015614422576144938583516144ad565b61449c82615bfe565b602095909501949150600101614480565b6143da81611d59565b6143da81615c2d565b6143da81615c38565b6143da81615c43565b60006144dc82615bfa565b8084526144f0816020860160208601615c65565b6144f981615c95565b9093016020019392505050565b60108152608060020a6f696e73756666696369656e742077656902602082015260400190565b603d8152600080516020615d2083398151915260208201527f6173736564206279203130206368616c6c656e676520706572696f6473000000604082015260600190565b604681527f6f6e636861696e207478436f756e74206d75737420626520686967686572206f60208201527f7220657175616c20746f207468652063757272656e74206f6e636861696e2074604082015260d260020a651e10dbdd5b9d02606082015260800190565b602181527f6f6e6c7920687562206f7220757365722063616e20656d707479207468726561602082015260fa60020a601902604082015260600190565b60158152605a60020a741dd95a481b5d5cdd0818994818dbdb9cd95c9d995902602082015260400190565b60118152607a60020a701cda59db985d1d5c99481a5b9d985b1a5902602082015260400190565b602d81527f6368616e6e656c206d616e616765722063616e206e6f742062652073656e64656020820152609960020a6c391037b9103932b1b2b4bb32b902604082015260600190565b602981527f6368616e6e656c20636c6f73696e672074696d65206d757374206e6f74206861602082015260ba60020a681d99481c185cdcd95902604082015260600190565b602581527f7573657220746f6b656e207769746864726177616c207472616e736665722066602082015260da60020a64185a5b195902604082015260600190565b602481527f72656365697665722062616c616e636573206d6179206e657665722064656372602082015260e060020a636561736502604082015260600190565b60158152605a60020a741a1d58881cda59db985d1d5c99481a5b9d985b1a5902602082015260400190565b601a81527f6368616e6e656c206d75737420626520696e2064697370757465000000000000602082015260400190565b603a81527f75706461746564207765692062616c616e636573206d757374206d617463682060208201527f73756d206f6620746872656164207765692062616c616e636573000000000000604082015260600190565b603381527f696e697469616c20746872656164207374617465206973206e6f7420636f6e746020820152606a60020a72185a5b9959081a5b881d1a1c995859149bdbdd02604082015260600190565b60128152607160020a7134b739bab33334b1b4b2b73a103a37b5b2b702602082015260400190565b60148152606160020a7331b430b73732b61036bab9ba1031329037b832b702602082015260400190565b602481527f6368616c6c656e6765722063616e206e6f74206265206578697420696e697469602082015260e160020a6330ba37b902604082015260600190565b60208082527f74687265616420636c6f73696e672074696d65206d757374206265207a65726f9082015260400190565b601a81527f73656e6465722063616e206e6f74206265207265636569766572000000000000602082015260400190565b600f8152608960020a6e2932b2b73a3930b73a1031b0b6361702602082015260400190565b604781527f73756d206f66207570646174656420746f6b656e2062616c616e636573206d7560208201527f7374206d617463682073656e646572277320696e697469616c20746f6b656e20604082015260c860020a6662616c616e636502606082015260800190565b60168152605260020a751d5cd95c881cda59db985d1d5c99481a5b9d985b1a5902602082015260400190565b604481527f687562436f6e747261637457697468647261773a20436f6e747261637420746f60208201527f6b656e2066756e6473206e6f742073756666696369656e7420746f2077697468604082015260e060020a636472617702606082015260800190565b602881527f696e73756666696369656e74207265736572766520746f6b656e7320666f7220602082015260c060020a676465706f7369747302604082015260600190565b60178152604860020a76757365722063616e6e6f7420656d70747920747769636502602082015260400190565b602b81527f687562436f6e747261637457697468647261773a20546f6b656e207472616e73602082015260a860020a6a666572206661696c75726502604082015260600190565b602b81527f63616e2774207374617274206578697420776974682074696d652d73656e7369602082015260a860020a6a746976652073746174657302604082015260600190565b603e81527f7570646174656420746f6b656e2062616c616e636573206d757374206d61746360208201527f682073756d206f662074687265616420746f6b656e2062616c616e6365730000604082015260600190565b60188152604260020a771d1bdad95b9cc81b5d5cdd0818994818dbdb9cd95c9d995902602082015260400190565b604281527f687562436f6e747261637457697468647261773a20436f6e747261637420776560208201527f692066756e6473206e6f742073756666696369656e7420746f20776974686472604082015260f060020a61617702606082015260800190565b602881527f74687265616420636c6f73696e672074696d65206d757374206e6f7420686176602082015260c260020a6719481c185cdcd95902604082015260600190565b602681527f696e697469616c2072656365697665722062616c616e636573206d7573742062602082015260d060020a6565207a65726f02604082015260600190565b602581527f6368616c6c656e676572206d757374206265206569746865722075736572206f602082015260d960020a643910343ab102604082015260600190565b604381527f73756d206f662075706461746564207765692062616c616e636573206d75737460208201527f206d617463682073656e646572277320696e697469616c207765692062616c61604082015260e860020a626e636502606082015260800190565b603d81527f676c6f62616c207478436f756e74206d7573742062652068696768657220746860208201527f616e207468652063757272656e7420676c6f62616c207478436f756e74000000604082015260600190565b602181527f6875622063616e206e6f742062652073656e646572206f722072656365697665602082015260f960020a603902604082015260600190565b604281527f73756d206f6620746872656164207765692062616c616e636573206d7573742060208201527f6d617463682073656e646572277320696e697469616c207765692062616c616e604082015260f060020a61636502606082015260800190565b60198152603a60020a781d5cd95c881d1bdad95b8819195c1bdcda5d0819985a5b195902602082015260400190565b602981527f746872656164206578697420696e69746961746f72206d757374206265207573602082015260b960020a6832b91037b910343ab102604082015260600190565b602581527f696e73756666696369656e7420726573657276652077656920666f7220646570602082015260d860020a646f7369747302604082015260600190565b60218152600080516020615ca0833981519152602082015260f860020a606502604082015260600190565b602481527f54687265616420636c6f73696e672074696d65206d7573742068617665207061602082015260e260020a631cdcd95902604082015260600190565b60138152606960020a723ab9b2b91031b0b7103737ba10313290343ab102602082015260400190565b604681527f73756d206f662074687265616420746f6b656e2062616c616e636573206d757360208201527f74206d617463682073656e646572277320696e697469616c20746f6b656e2062604082015260d060020a65616c616e636502606082015260800190565b602b81527f7468652074696d656f7574206d757374206265207a65726f206f72206e6f7420602082015260aa60020a6a1a185d99481c185cdcd95902604082015260600190565b602c81527f7570646174656420746872656164207478436f756e74206d7573742062652068602082015260a460020a6b06967686572207468616e20302604082015260600190565b602e81527f75736572205b73656e6465725d20746f6b656e207769746864726177616c20746020820152609260020a6d1c985b9cd9995c8819985a5b195902604082015260600190565b602281527f6578697420696e69746961746f72206d7573742062652075736572206f722068602082015260f160020a613ab102604082015260600190565b60278152600080516020615ca0833981519152602082015260c860020a666520706861736502604082015260600190565b601f81527f757365722063616e206e6f74206265206368616e6e656c206d616e6167657200602082015260400190565b60558152600080516020615d2083398151915260208201527f6173736564206f72206d73672e73656e646572206d757374206265206e6f6e2d6040820152605860020a74657869742d696e6974696174696e6720706172747902606082015260800190565b603081527f75736572205b72656365697665725d20746f6b656e207769746864726177616c6020820152608260020a6f081d1c985b9cd9995c8819985a5b195902604082015260600190565b602e81527f6d73672e76616c7565206973206e6f7420657175616c20746f2070656e64696e6020820152609260020a6d19c81d5cd95c8819195c1bdcda5d02604082015260600190565b603d81527f746872656164207478436f756e74206d7573742062652068696768657220746860208201527f616e207468652063757272656e7420746872656164207478436f756e74000000604082015260600190565b603481527f6f6e6c79206875622c2073656e6465722c206f722072656365697665722063616020820152606160020a73371031b0b636103a3434b990333ab731ba34b7b702604082015260600190565b602681527f75736572206d757374206265207468726561642073656e646572206f72207265602082015260d160020a6531b2b4bb32b902604082015260600190565b6143da81615c4e565b602081016153b582846143d1565b92915050565b606081016153c982866143d1565b6153d660208301856143d1565b613d8c60408301846144ad565b604081016153f182856143d1565b613bb660208301846144ad565b610160810161540d828b6143d1565b61541a602083018a6144ad565b61542760408301896143d1565b61543460608301886143e0565b61544160a08301876143e0565b61544e60e0830186614429565b61545c6101208301856144ad565b61546a6101408301846144ad565b9998505050505050505050565b610100810161548682896143d1565b61549360208301886144ad565b6154a060408301876143d1565b6154ad6060830186614429565b6154ba60a0830185614429565b6154c760e08301846144ad565b979650505050505050565b61016081016154e1828b6143d1565b6154ee602083018a6144ad565b61542760408301896144ad565b610100810161550a82896143d1565b61551760208301886144ad565b6154a0604083018761539e565b6040810161553282856144ad565b8181036020830152613d8c81846144d1565b6060810161555282866144ad565b818103602083015261556481856144d1565b9050613d8c60408301846143d1565b60a0810161558182886144ad565b61558e60208301876144ad565b61559b60408301866143d1565b6155a860608301856144ad565b6155b560808301846144bf565b9695505050505050565b602081016153b582846144b6565b61022081016155dc828b6144c8565b6155e9602083018a6143e0565b6155f660608301896143e0565b61560360a083018861446b565b61561161012083018761446b565b61561f6101a08301866143e0565b61562d6101e08301856144ad565b61546a6102008301846144ad565b610220810161564a828b6144c8565b615657602083018a6143e0565b61566460608301896143e0565b61567160a083018861446b565b61567f61012083018761446b565b61561f6101a0830186614429565b60208082528101613bb681846144d1565b602080825281016153b581614506565b602080825281016153b58161452c565b602080825281016153b581614570565b602080825281016153b5816145d8565b602080825281016153b581614615565b602080825281016153b581614640565b602080825281016153b581614667565b602080825281016153b5816146b0565b602080825281016153b5816146f5565b602080825281016153b581614736565b602080825281016153b581614776565b602080825281016153b5816147a1565b602080825281016153b5816147d1565b602080825281016153b581614827565b602080825281016153b581614876565b602080825281016153b58161489e565b602080825281016153b5816148c8565b602080825281016153b581614908565b602080825281016153b581614938565b602080825281016153b581614968565b602080825281016153b58161498d565b602080825281016153b5816149f6565b602080825281016153b581614a22565b602080825281016153b581614a88565b602080825281016153b581614acc565b602080825281016153b581614af9565b602080825281016153b581614b40565b602080825281016153b581614b87565b602080825281016153b581614bdd565b602080825281016153b581614c0b565b602080825281016153b581614c6f565b602080825281016153b581614cb3565b602080825281016153b581614cf5565b602080825281016153b581614d36565b602080825281016153b581614d9b565b602080825281016153b581614df1565b602080825281016153b581614e2e565b602080825281016153b581614e92565b602080825281016153b581614ec1565b602080825281016153b581614f06565b602080825281016153b581614f47565b602080825281016153b581614f72565b602080825281016153b581614fb2565b602080825281016153b581614fdb565b602080825281016153b581615043565b602080825281016153b58161508a565b602080825281016153b5816150d2565b602080825281016153b58161511c565b602080825281016153b58161515a565b602080825281016153b58161518b565b602080825281016153b5816151bb565b602080825281016153b581615220565b602080825281016153b58161526c565b602080825281016153b5816152b6565b602080825281016153b58161530c565b602080825281016153b58161535c565b602081016153b582846144ad565b60e08101615a3a82886144ad565b615a4760208301876143d1565b615a546040830186614429565b615a616080830185614429565b6155b560c08301846144ad565b604081016153f182856144ad565b60e08101615a8a828a6144ad565b615a9760208301896144ad565b615aa460408301886144ad565b615ab160608301876144ad565b615abe60808301866143d1565b615acb60a08301856144ad565b615ad860c08301846144bf565b98975050505050505050565b60c08101615af282896144ad565b615aff60208301886144ad565b615b0c60408301876144ad565b615b1960608301866144ad565b615b2660808301856144ad565b6154c760a08301846144ad565b6101208101615b42828961539e565b615b4f60208301886143e0565b615b5c60608301876143e0565b615b6960a0830186614429565b615b7660e08301856144ad565b6154c76101008301846144ad565b6040518181016001604060020a0381118282101715615ba257600080fd5b604052919050565b60006001604060020a03821115615bc057600080fd5b5060200290565b60006001604060020a03821115615bdd57600080fd5b506020601f91909101601f19160190565b50600290565b50600490565b5190565b60200190565b60010190565b600160a060020a031690565b600060038210613afa57fe5b60ff1690565b151590565b60006153b582615c0a565b60006153b582615c16565b60006153b582611d59565b60006153b582615c22565b82818337506000910152565b60005b83811015615c80578181015183820152602001615c68565b83811115615c8f576000848401525b50505050565b601f01601f19169056006368616e6e656c206d75737420626520696e20746872656164206469737075746e65112e059a868cb1c7c4aed27e34fbbe470d2df0cbaa09bb5f82e5cba029fadbf69f39706ae3cb4e5b9dbca5780e14ba4968cdd060d5c3268f335ad6c25761eace9ecdebd30bbfc243bdc30bfa016abfa8f627654b4989da4620271dc77b1c6368616e6e656c20636c6f73696e672074696d65206d75737420686176652070ff678da893f9e68225fd9be0e51123341ba6d50fe0df41edebef4e9c0d242f77a265627a7a7230582006425e8667466f389720a57bb35ac47ed9e36d561534b808e84bbbed3177b2bc6c6578706572696d656e74616cf50037",
	"source": "pragma solidity ^0.4.25;\npragma experimental ABIEncoderV2;\n\nimport \"./lib/ECTools.sol\";\nimport \"./lib/ERC20.sol\";\nimport \"./lib/SafeMath.sol\";\n\ncontract ChannelManager {\n    using SafeMath for uint256;\n\n    string public constant NAME = \"Channel Manager\";\n    string public constant VERSION = \"0.0.1\";\n\n    address public hub;\n    uint256 public challengePeriod;\n    ERC20 public approvedToken;\n\n    uint256 public totalChannelWei;\n    uint256 public totalChannelToken;\n\n    event DidHubContractWithdraw (\n        uint256 weiAmount,\n        uint256 tokenAmount\n    );\n\n    // Note: the payload of DidUpdateChannel contains the state that caused\n    // the update, not the state post-update (ex, if the update contains a\n    // deposit, the event's ``pendingDeposit`` field will be present and the\n    // event's ``balance`` field will not have been updated to reflect that\n    // balance).\n    event DidUpdateChannel (\n        address indexed user,\n        uint256 senderIdx, // 0: hub, 1: user\n        uint256[2] weiBalances, // [hub, user]\n        uint256[2] tokenBalances, // [hub, user]\n        uint256[4] pendingWeiUpdates, // [hubDeposit, hubWithdrawal, userDeposit, userWithdrawal]\n        uint256[4] pendingTokenUpdates, // [hubDeposit, hubWithdrawal, userDeposit, userWithdrawal]\n        uint256[2] txCount, // [global, onchain]\n        bytes32 threadRoot,\n        uint256 threadCount\n    );\n\n    // Note: unlike the DidUpdateChannel event, the ``DidStartExitChannel``\n    // event will contain the channel state after any state that has been\n    // applied as part of startExitWithUpdate.\n    event DidStartExitChannel (\n        address indexed user,\n        uint256 senderIdx, // 0: hub, 1: user\n        uint256[2] weiBalances, // [hub, user]\n        uint256[2] tokenBalances, // [hub, user]\n        uint256[2] txCount, // [global, onchain]\n        bytes32 threadRoot,\n        uint256 threadCount\n    );\n\n    event DidEmptyChannel (\n        address indexed user,\n        uint256 senderIdx, // 0: hub, 1: user\n        uint256[2] weiBalances, // [hub, user]\n        uint256[2] tokenBalances, // [hub, user]\n        uint256[2] txCount, // [global, onchain]\n        bytes32 threadRoot,\n        uint256 threadCount\n    );\n\n    event DidStartExitThread (\n        address user,\n        address indexed sender,\n        address indexed receiver,\n        uint256 threadId,\n        address senderAddress, // either hub or user\n        uint256[2] weiBalances, // [sender, receiver]\n        uint256[2] tokenBalances, // [sender, receiver]\n        uint256 txCount\n    );\n\n    event DidChallengeThread (\n        address indexed sender,\n        address indexed receiver,\n        uint256 threadId,\n        address senderAddress, // can be either hub, sender, or receiver\n        uint256[2] weiBalances, // [sender, receiver]\n        uint256[2] tokenBalances, // [sender, receiver]\n        uint256 txCount\n    );\n\n    event DidEmptyThread (\n        address user,\n        address indexed sender,\n        address indexed receiver,\n        uint256 threadId,\n        address senderAddress, // can be anyone\n        uint256[2] channelWeiBalances,\n        uint256[2] channelTokenBalances,\n        uint256[2] channelTxCount,\n        bytes32 channelThreadRoot,\n        uint256 channelThreadCount\n    );\n\n    event DidNukeThreads(\n        address indexed user,\n        address senderAddress, // can be anyone\n        uint256 weiAmount, // amount of wei sent\n        uint256 tokenAmount, // amount of tokens sent\n        uint256[2] channelWeiBalances,\n        uint256[2] channelTokenBalances,\n        uint256[2] channelTxCount,\n        bytes32 channelThreadRoot,\n        uint256 channelThreadCount\n    );\n\n    enum ChannelStatus {\n       Open,\n       ChannelDispute,\n       ThreadDispute\n    }\n\n    struct Channel {\n        uint256[3] weiBalances; // [hub, user, total]\n        uint256[3] tokenBalances; // [hub, user, total]\n        uint256[2] txCount; // persisted onchain even when empty [global, pending]\n        bytes32 threadRoot;\n        uint256 threadCount;\n        address exitInitiator;\n        uint256 channelClosingTime;\n        ChannelStatus status;\n    }\n\n    struct Thread {\n        uint256[2] weiBalances; // [sender, receiver]\n        uint256[2] tokenBalances; // [sender, receiver]\n        uint256 txCount; // persisted onchain even when empty\n        uint256 threadClosingTime;\n        bool[2] emptied; // [sender, receiver]\n    }\n\n    mapping(address => Channel) public channels;\n    mapping(address => mapping(address => mapping(uint256 => Thread))) threads; // threads[sender][receiver][threadId]\n\n    bool locked;\n\n    modifier onlyHub() {\n        require(msg.sender == hub);\n        _;\n    }\n\n    modifier noReentrancy() {\n        require(!locked, \"Reentrant call.\");\n        locked = true;\n        _;\n        locked = false;\n    }\n\n    constructor(address _hub, uint256 _challengePeriod, address _tokenAddress) public {\n        hub = _hub;\n        challengePeriod = _challengePeriod;\n        approvedToken = ERC20(_tokenAddress);\n    }\n\n    function hubContractWithdraw(uint256 weiAmount, uint256 tokenAmount) public noReentrancy onlyHub {\n        require(\n            getHubReserveWei() >= weiAmount,\n            \"hubContractWithdraw: Contract wei funds not sufficient to withdraw\"\n        );\n        require(\n            getHubReserveTokens() >= tokenAmount,\n            \"hubContractWithdraw: Contract token funds not sufficient to withdraw\"\n        );\n\n        hub.transfer(weiAmount);\n        require(\n            approvedToken.transfer(hub, tokenAmount),\n            \"hubContractWithdraw: Token transfer failure\"\n        );\n\n        emit DidHubContractWithdraw(weiAmount, tokenAmount);\n    }\n\n    function getHubReserveWei() public view returns (uint256) {\n        return address(this).balance.sub(totalChannelWei);\n    }\n\n    function getHubReserveTokens() public view returns (uint256) {\n        return approvedToken.balanceOf(address(this)).sub(totalChannelToken);\n    }\n\n    function hubAuthorizedUpdate(\n        address user,\n        address recipient,\n        uint256[2] weiBalances, // [hub, user]\n        uint256[2] tokenBalances, // [hub, user]\n        uint256[4] pendingWeiUpdates, // [hubDeposit, hubWithdrawal, userDeposit, userWithdrawal]\n        uint256[4] pendingTokenUpdates, // [hubDeposit, hubWithdrawal, userDeposit, userWithdrawal]\n        uint256[2] txCount, // [global, onchain] persisted onchain even when empty\n        bytes32 threadRoot,\n        uint256 threadCount,\n        uint256 timeout,\n        string sigUser\n    ) public noReentrancy onlyHub {\n        Channel storage channel = channels[user];\n\n        _verifyAuthorizedUpdate(\n            channel,\n            txCount,\n            weiBalances,\n            tokenBalances,\n            pendingWeiUpdates,\n            pendingTokenUpdates,\n            timeout,\n            true\n        );\n\n        _verifySig(\n            [user, recipient],\n            weiBalances,\n            tokenBalances,\n            pendingWeiUpdates, // [hubDeposit, hubWithdrawal, userDeposit, userWithdrawal]\n            pendingTokenUpdates, // [hubDeposit, hubWithdrawal, userDeposit, userWithdrawal]\n            txCount,\n            threadRoot,\n            threadCount,\n            timeout,\n            \"\", // skip hub sig verification\n            sigUser,\n            [false, true] // [checkHubSig?, checkUser] <- only need to check user\n        );\n\n        _updateChannelBalances(channel, weiBalances, tokenBalances, pendingWeiUpdates, pendingTokenUpdates);\n\n        // transfer wei and token to recipient\n        recipient.transfer(pendingWeiUpdates[3]);\n        require(approvedToken.transfer(recipient, pendingTokenUpdates[3]), \"user token withdrawal transfer failed\");\n\n        // update state variables\n        channel.txCount = txCount;\n        channel.threadRoot = threadRoot;\n        channel.threadCount = threadCount;\n\n        emit DidUpdateChannel(\n            user,\n            0, // senderIdx\n            weiBalances,\n            tokenBalances,\n            pendingWeiUpdates,\n            pendingTokenUpdates,\n            txCount,\n            threadRoot,\n            threadCount\n        );\n    }\n\n    function userAuthorizedUpdate(\n        address recipient,\n        uint256[2] weiBalances, // [hub, user]\n        uint256[2] tokenBalances, // [hub, user]\n        uint256[4] pendingWeiUpdates, // [hubDeposit, hubWithdrawal, userDeposit, userWithdrawal]\n        uint256[4] pendingTokenUpdates, // [hubDeposit, hubWithdrawal, userDeposit, userWithdrawal]\n        uint256[2] txCount, // persisted onchain even when empty\n        bytes32 threadRoot,\n        uint256 threadCount,\n        uint256 timeout,\n        string sigHub\n    ) public payable noReentrancy {\n        require(msg.value == pendingWeiUpdates[2], \"msg.value is not equal to pending user deposit\");\n\n        Channel storage channel = channels[msg.sender];\n\n        _verifyAuthorizedUpdate(\n            channel,\n            txCount,\n            weiBalances,\n            tokenBalances,\n            pendingWeiUpdates,\n            pendingTokenUpdates,\n            timeout,\n            false\n        );\n\n        _verifySig(\n            [msg.sender, recipient],\n            weiBalances,\n            tokenBalances,\n            pendingWeiUpdates, // [hubDeposit, hubWithdrawal, userDeposit, userWithdrawal]\n            pendingTokenUpdates, // [hubDeposit, hubWithdrawal, userDeposit, userWithdrawal]\n            txCount,\n            threadRoot,\n            threadCount,\n            timeout,\n            sigHub,\n            \"\", // skip user sig verification\n            [true, false] // [checkHubSig?, checkUser] <- only need to check hub\n        );\n\n        // transfer user token deposit to this contract\n        require(approvedToken.transferFrom(msg.sender, address(this), pendingTokenUpdates[2]), \"user token deposit failed\");\n\n        _updateChannelBalances(channel, weiBalances, tokenBalances, pendingWeiUpdates, pendingTokenUpdates);\n\n        // transfer wei and token to recipient\n        recipient.transfer(pendingWeiUpdates[3]);\n        require(approvedToken.transfer(recipient, pendingTokenUpdates[3]), \"user token withdrawal transfer failed\");\n\n        // update state variables\n        channel.txCount = txCount;\n        channel.threadRoot = threadRoot;\n        channel.threadCount = threadCount;\n\n        emit DidUpdateChannel(\n            msg.sender,\n            1, // senderIdx\n            weiBalances,\n            tokenBalances,\n            pendingWeiUpdates,\n            pendingTokenUpdates,\n            channel.txCount,\n            channel.threadRoot,\n            channel.threadCount\n        );\n    }\n\n    /**********************\n     * Unilateral Functions\n     *********************/\n\n    // start exit with onchain state\n    function startExit(\n        address user\n    ) public noReentrancy {\n        require(user != hub, \"user can not be hub\");\n        require(user != address(this), \"user can not be channel manager\");\n\n        Channel storage channel = channels[user];\n        require(channel.status == ChannelStatus.Open, \"channel must be open\");\n\n        require(msg.sender == hub || msg.sender == user, \"exit initiator must be user or hub\");\n\n        channel.exitInitiator = msg.sender;\n        channel.channelClosingTime = now.add(challengePeriod);\n        channel.status = ChannelStatus.ChannelDispute;\n\n        emit DidStartExitChannel(\n            user,\n            msg.sender == hub ? 0 : 1,\n            [channel.weiBalances[0], channel.weiBalances[1]],\n            [channel.tokenBalances[0], channel.tokenBalances[1]],\n            channel.txCount,\n            channel.threadRoot,\n            channel.threadCount\n        );\n    }\n\n    // start exit with offchain state\n    function startExitWithUpdate(\n        address[2] user, // [user, recipient]\n        uint256[2] weiBalances, // [hub, user]\n        uint256[2] tokenBalances, // [hub, user]\n        uint256[4] pendingWeiUpdates, // [hubDeposit, hubWithdrawal, userDeposit, userWithdrawal]\n        uint256[4] pendingTokenUpdates, // [hubDeposit, hubWithdrawal, userDeposit, userWithdrawal]\n        uint256[2] txCount, // [global, onchain] persisted onchain even when empty\n        bytes32 threadRoot,\n        uint256 threadCount,\n        uint256 timeout,\n        string sigHub,\n        string sigUser\n    ) public noReentrancy {\n        Channel storage channel = channels[user[0]];\n        require(channel.status == ChannelStatus.Open, \"channel must be open\");\n\n        require(msg.sender == hub || msg.sender == user[0], \"exit initiator must be user or hub\");\n\n        require(timeout == 0, \"can't start exit with time-sensitive states\");\n\n        _verifySig(\n            user,\n            weiBalances,\n            tokenBalances,\n            pendingWeiUpdates, // [hubDeposit, hubWithdrawal, userDeposit, userWithdrawal]\n            pendingTokenUpdates, // [hubDeposit, hubWithdrawal, userDeposit, userWithdrawal]\n            txCount,\n            threadRoot,\n            threadCount,\n            timeout,\n            sigHub,\n            sigUser,\n            [true, true] // [checkHubSig?, checkUser] <- check both sigs\n        );\n\n        require(txCount[0] > channel.txCount[0], \"global txCount must be higher than the current global txCount\");\n        require(txCount[1] >= channel.txCount[1], \"onchain txCount must be higher or equal to the current onchain txCount\");\n\n        // offchain wei/token balances do not exceed onchain total wei/token\n        require(weiBalances[0].add(weiBalances[1]) <= channel.weiBalances[2], \"wei must be conserved\");\n        require(tokenBalances[0].add(tokenBalances[1]) <= channel.tokenBalances[2], \"tokens must be conserved\");\n\n        // pending onchain txs have been executed - force update offchain state to reflect this\n        if (txCount[1] == channel.txCount[1]) {\n            _applyPendingUpdates(channel.weiBalances, weiBalances, pendingWeiUpdates);\n            _applyPendingUpdates(channel.tokenBalances, tokenBalances, pendingTokenUpdates);\n\n        // pending onchain txs have *not* been executed - revert pending deposits and withdrawals back into offchain balances\n        } else { //txCount[1] > channel.txCount[1]\n            _revertPendingUpdates(channel.weiBalances, weiBalances, pendingWeiUpdates);\n            _revertPendingUpdates(channel.tokenBalances, tokenBalances, pendingTokenUpdates);\n        }\n\n        // update state variables\n        // only update txCount[0] (global)\n        // - txCount[1] should only be updated by user/hubAuthorizedUpdate\n        channel.txCount[0] = txCount[0];\n        channel.threadRoot = threadRoot;\n        channel.threadCount = threadCount;\n\n        channel.exitInitiator = msg.sender;\n        channel.channelClosingTime = now.add(challengePeriod);\n        channel.status = ChannelStatus.ChannelDispute;\n\n        emit DidStartExitChannel(\n            user[0],\n            msg.sender == hub ? 0 : 1,\n            [channel.weiBalances[0], channel.weiBalances[1]],\n            [channel.tokenBalances[0], channel.tokenBalances[1]],\n            channel.txCount,\n            channel.threadRoot,\n            channel.threadCount\n        );\n    }\n\n    // party that didn't start exit can challenge and empty\n    function emptyChannelWithChallenge(\n        address[2] user,\n        uint256[2] weiBalances, // [hub, user]\n        uint256[2] tokenBalances, // [hub, user]\n        uint256[4] pendingWeiUpdates, // [hubDeposit, hubWithdrawal, userDeposit, userWithdrawal]\n        uint256[4] pendingTokenUpdates, // [hubDeposit, hubWithdrawal, userDeposit, userWithdrawal]\n        uint256[2] txCount, // persisted onchain even when empty\n        bytes32 threadRoot,\n        uint256 threadCount,\n        uint256 timeout,\n        string sigHub,\n        string sigUser\n    ) public noReentrancy {\n        Channel storage channel = channels[user[0]];\n        require(channel.status == ChannelStatus.ChannelDispute, \"channel must be in dispute\");\n        require(now < channel.channelClosingTime, \"channel closing time must not have passed\");\n\n        require(msg.sender != channel.exitInitiator, \"challenger can not be exit initiator\");\n        require(msg.sender == hub || msg.sender == user[0], \"challenger must be either user or hub\");\n\n        require(timeout == 0, \"can't start exit with time-sensitive states\");\n\n        _verifySig(\n            user,\n            weiBalances,\n            tokenBalances,\n            pendingWeiUpdates, // [hubDeposit, hubWithdrawal, userDeposit, userWithdrawal]\n            pendingTokenUpdates, // [hubDeposit, hubWithdrawal, userDeposit, userWithdrawal]\n            txCount,\n            threadRoot,\n            threadCount,\n            timeout,\n            sigHub,\n            sigUser,\n            [true, true] // [checkHubSig?, checkUser] <- check both sigs\n        );\n\n        require(txCount[0] > channel.txCount[0], \"global txCount must be higher than the current global txCount\");\n        require(txCount[1] >= channel.txCount[1], \"onchain txCount must be higher or equal to the current onchain txCount\");\n\n        // offchain wei/token balances do not exceed onchain total wei/token\n        require(weiBalances[0].add(weiBalances[1]) <= channel.weiBalances[2], \"wei must be conserved\");\n        require(tokenBalances[0].add(tokenBalances[1]) <= channel.tokenBalances[2], \"tokens must be conserved\");\n\n        // pending onchain txs have been executed - force update offchain state to reflect this\n        if (txCount[1] == channel.txCount[1]) {\n            _applyPendingUpdates(channel.weiBalances, weiBalances, pendingWeiUpdates);\n            _applyPendingUpdates(channel.tokenBalances, tokenBalances, pendingTokenUpdates);\n\n        // pending onchain txs have *not* been executed - revert pending deposits and withdrawals back into offchain balances\n        } else { //txCount[1] > channel.txCount[1]\n            _revertPendingUpdates(channel.weiBalances, weiBalances, pendingWeiUpdates);\n            _revertPendingUpdates(channel.tokenBalances, tokenBalances, pendingTokenUpdates);\n        }\n\n        // deduct hub/user wei/tokens from total channel balances\n        channel.weiBalances[2] = channel.weiBalances[2].sub(channel.weiBalances[0]).sub(channel.weiBalances[1]);\n        channel.tokenBalances[2] = channel.tokenBalances[2].sub(channel.tokenBalances[0]).sub(channel.tokenBalances[1]);\n\n        // transfer hub wei balance from channel to reserves\n        totalChannelWei = totalChannelWei.sub(channel.weiBalances[0]).sub(channel.weiBalances[1]);\n        // transfer user wei balance to user\n        user[0].transfer(channel.weiBalances[1]);\n        channel.weiBalances[0] = 0;\n        channel.weiBalances[1] = 0;\n\n        // transfer hub token balance from channel to reserves\n        totalChannelToken = totalChannelToken.sub(channel.tokenBalances[0]).sub(channel.tokenBalances[1]);\n        // transfer user token balance to user\n        require(approvedToken.transfer(user[0], channel.tokenBalances[1]), \"user token withdrawal transfer failed\");\n        channel.tokenBalances[0] = 0;\n        channel.tokenBalances[1] = 0;\n\n        // update state variables\n        // only update txCount[0] (global)\n        // - txCount[1] should only be updated by user/hubAuthorizedUpdate\n        channel.txCount[0] = txCount[0];\n        channel.threadRoot = threadRoot;\n        channel.threadCount = threadCount;\n\n        if (channel.threadCount > 0) {\n            channel.status = ChannelStatus.ThreadDispute;\n        } else {\n            channel.channelClosingTime = 0;\n            channel.status = ChannelStatus.Open;\n        }\n\n        channel.exitInitiator = address(0x0);\n\n        emit DidEmptyChannel(\n            user[0],\n            msg.sender == hub ? 0 : 1,\n            [channel.weiBalances[0], channel.weiBalances[1]],\n            [channel.tokenBalances[0], channel.tokenBalances[1]],\n            channel.txCount,\n            channel.threadRoot,\n            channel.threadCount\n        );\n    }\n\n    // after timer expires - anyone can call; even before timer expires, non-exit-initiating party can call\n    function emptyChannel(\n        address user\n    ) public noReentrancy {\n        require(user != hub, \"user can not be hub\");\n        require(user != address(this), \"user can not be channel manager\");\n\n        Channel storage channel = channels[user];\n        require(channel.status == ChannelStatus.ChannelDispute, \"channel must be in dispute\");\n\n        require(\n          channel.channelClosingTime < now ||\n          msg.sender != channel.exitInitiator && (msg.sender == hub || msg.sender == user),\n          \"channel closing time must have passed or msg.sender must be non-exit-initiating party\"\n        );\n\n        // deduct hub/user wei/tokens from total channel balances\n        channel.weiBalances[2] = channel.weiBalances[2].sub(channel.weiBalances[0]).sub(channel.weiBalances[1]);\n        channel.tokenBalances[2] = channel.tokenBalances[2].sub(channel.tokenBalances[0]).sub(channel.tokenBalances[1]);\n\n        // transfer hub wei balance from channel to reserves\n        totalChannelWei = totalChannelWei.sub(channel.weiBalances[0]).sub(channel.weiBalances[1]);\n        // transfer user wei balance to user\n        user.transfer(channel.weiBalances[1]);\n        channel.weiBalances[0] = 0;\n        channel.weiBalances[1] = 0;\n\n        // transfer hub token balance from channel to reserves\n        totalChannelToken = totalChannelToken.sub(channel.tokenBalances[0]).sub(channel.tokenBalances[1]);\n        // transfer user token balance to user\n        require(approvedToken.transfer(user, channel.tokenBalances[1]), \"user token withdrawal transfer failed\");\n        channel.tokenBalances[0] = 0;\n        channel.tokenBalances[1] = 0;\n\n        if (channel.threadCount > 0) {\n            channel.status = ChannelStatus.ThreadDispute;\n        } else {\n            channel.channelClosingTime = 0;\n            channel.status = ChannelStatus.Open;\n        }\n\n        channel.exitInitiator = address(0x0);\n\n        emit DidEmptyChannel(\n            user,\n            msg.sender == hub ? 0 : 1,\n            [channel.weiBalances[0], channel.weiBalances[1]],\n            [channel.tokenBalances[0], channel.tokenBalances[1]],\n            channel.txCount,\n            channel.threadRoot,\n            channel.threadCount\n        );\n    }\n\n    // **********************\n    // THREAD DISPUTE METHODS\n    // **********************\n\n    // either party starts exit with initial state\n    function startExitThread(\n        address user,\n        address sender,\n        address receiver,\n        uint256 threadId,\n        uint256[2] weiBalances, // [sender, receiver]\n        uint256[2] tokenBalances, // [sender, receiver]\n        bytes proof,\n        string sig\n    ) public noReentrancy {\n        Channel storage channel = channels[user];\n        require(channel.status == ChannelStatus.ThreadDispute, \"channel must be in thread dispute phase\");\n        require(msg.sender == hub || msg.sender == user, \"thread exit initiator must be user or hub\");\n        require(user == sender || user == receiver, \"user must be thread sender or receiver\");\n\n        require(weiBalances[1] == 0 && tokenBalances[1] == 0, \"initial receiver balances must be zero\");\n\n        Thread storage thread = threads[sender][receiver][threadId];\n\n        require(thread.threadClosingTime == 0, \"thread closing time must be zero\");\n\n        _verifyThread(sender, receiver, threadId, weiBalances, tokenBalances, 0, proof, sig, channel.threadRoot);\n\n        thread.weiBalances = weiBalances;\n        thread.tokenBalances = tokenBalances;\n        thread.threadClosingTime = now.add(challengePeriod);\n\n        emit DidStartExitThread(\n            user,\n            sender,\n            receiver,\n            threadId,\n            msg.sender,\n            thread.weiBalances,\n            thread.tokenBalances,\n            thread.txCount\n        );\n    }\n\n    // either party starts exit with offchain state\n    function startExitThreadWithUpdate(\n        address user,\n        address[2] threadMembers, //[sender, receiver]\n        uint256 threadId,\n        uint256[2] weiBalances, // [sender, receiver]\n        uint256[2] tokenBalances, // [sender, receiver]\n        bytes proof,\n        string sig,\n        uint256[2] updatedWeiBalances, // [sender, receiver]\n        uint256[2] updatedTokenBalances, // [sender, receiver]\n        uint256 updatedTxCount,\n        string updateSig\n    ) public noReentrancy {\n        Channel storage channel = channels[user];\n        require(channel.status == ChannelStatus.ThreadDispute, \"channel must be in thread dispute phase\");\n        require(msg.sender == hub || msg.sender == user, \"thread exit initiator must be user or hub\");\n        require(user == threadMembers[0] || user == threadMembers[1], \"user must be thread sender or receiver\");\n\n        require(weiBalances[1] == 0 && tokenBalances[1] == 0, \"initial receiver balances must be zero\");\n\n        Thread storage thread = threads[threadMembers[0]][threadMembers[1]][threadId];\n        require(thread.threadClosingTime == 0, \"thread closing time must be zero\");\n\n        _verifyThread(threadMembers[0], threadMembers[1], threadId, weiBalances, tokenBalances, 0, proof, sig, channel.threadRoot);\n\n        // *********************\n        // PROCESS THREAD UPDATE\n        // *********************\n\n        require(updatedTxCount > 0, \"updated thread txCount must be higher than 0\");\n        require(updatedWeiBalances[0].add(updatedWeiBalances[1]) == weiBalances[0], \"sum of updated wei balances must match sender's initial wei balance\");\n        require(updatedTokenBalances[0].add(updatedTokenBalances[1]) == tokenBalances[0], \"sum of updated token balances must match sender's initial token balance\");\n\n        // Note: explicitly set threadRoot == 0x0 because then it doesn't get checked by _isContained (updated state is not part of root)\n        _verifyThread(threadMembers[0], threadMembers[1], threadId, updatedWeiBalances, updatedTokenBalances, updatedTxCount, \"\", updateSig, bytes32(0x0));\n\n        thread.weiBalances = updatedWeiBalances;\n        thread.tokenBalances = updatedTokenBalances;\n        thread.txCount = updatedTxCount;\n        thread.threadClosingTime = now.add(challengePeriod);\n\n        emit DidStartExitThread(\n            user,\n            threadMembers[0],\n            threadMembers[1],\n            threadId,\n            msg.sender == hub ? 0 : 1,\n            thread.weiBalances,\n            thread.tokenBalances,\n            thread.txCount\n        );\n    }\n\n    // either hub, sender, or receiver can update the thread state in place\n    function challengeThread(\n        address sender,\n        address receiver,\n        uint256 threadId,\n        uint256[2] weiBalances, // updated weiBalances\n        uint256[2] tokenBalances, // updated tokenBalances\n        uint256 txCount,\n        string sig\n    ) public noReentrancy {\n        require(msg.sender == hub || msg.sender == sender || msg.sender == receiver, \"only hub, sender, or receiver can call this function\");\n\n        Thread storage thread = threads[sender][receiver][threadId];\n        //verify that thread settlement period has not yet expired\n        require(now < thread.threadClosingTime, \"thread closing time must not have passed\");\n\n        // assumes that the non-sender has a later thread state than what was being proposed when the thread exit started\n        require(txCount > thread.txCount, \"thread txCount must be higher than the current thread txCount\");\n        require(weiBalances[0].add(weiBalances[1]) == thread.weiBalances[0].add(thread.weiBalances[1]), \"updated wei balances must match sum of thread wei balances\");\n        require(tokenBalances[0].add(tokenBalances[1]) == thread.tokenBalances[0].add(thread.tokenBalances[1]), \"updated token balances must match sum of thread token balances\");\n\n        require(weiBalances[1] >= thread.weiBalances[1] && tokenBalances[1] >= thread.tokenBalances[1], \"receiver balances may never decrease\");\n\n        // Note: explicitly set threadRoot == 0x0 because then it doesn't get checked by _isContained (updated state is not part of root)\n        _verifyThread(sender, receiver, threadId, weiBalances, tokenBalances, txCount, \"\", sig, bytes32(0x0));\n\n        // save the thread balances and txCount\n        thread.weiBalances = weiBalances;\n        thread.tokenBalances = tokenBalances;\n        thread.txCount = txCount;\n\n        emit DidChallengeThread(\n            sender,\n            receiver,\n            threadId,\n            msg.sender,\n            thread.weiBalances,\n            thread.tokenBalances,\n            thread.txCount\n        );\n    }\n\n    //After the thread state has been finalized onchain, emptyThread can be called to withdraw funds for each channel separately.\n    function emptyThread(\n        address user,\n        address sender,\n        address receiver,\n        uint256 threadId,\n        uint256[2] weiBalances, // [sender, receiver] -> initial balances\n        uint256[2] tokenBalances, // [sender, receiver] -> initial balances\n        bytes proof,\n        string sig\n    ) public noReentrancy {\n        Channel storage channel = channels[user];\n        require(channel.status == ChannelStatus.ThreadDispute, \"channel must be in thread dispute\");\n        require(msg.sender == hub || msg.sender == user, \"only hub or user can empty thread\");\n        require(user == sender || user == receiver, \"user must be thread sender or receiver\");\n\n        require(weiBalances[1] == 0 && tokenBalances[1] == 0, \"initial receiver balances must be zero\");\n\n        Thread storage thread = threads[sender][receiver][threadId];\n\n        // We check to make sure that the thread state has been finalized\n        require(thread.threadClosingTime != 0 && thread.threadClosingTime < now, \"Thread closing time must have passed\");\n\n        // Make sure user has not emptied before\n        require(!thread.emptied[user == sender ? 0 : 1], \"user cannot empty twice\");\n\n        // verify initial thread state.\n        _verifyThread(sender, receiver, threadId, weiBalances, tokenBalances, 0, proof, sig, channel.threadRoot);\n\n        require(thread.weiBalances[0].add(thread.weiBalances[1]) == weiBalances[0], \"sum of thread wei balances must match sender's initial wei balance\");\n        require(thread.tokenBalances[0].add(thread.tokenBalances[1]) == tokenBalances[0], \"sum of thread token balances must match sender's initial token balance\");\n\n        // deduct sender/receiver wei/tokens about to be emptied from the thread from the total channel balances\n        channel.weiBalances[2] = channel.weiBalances[2].sub(thread.weiBalances[0]).sub(thread.weiBalances[1]);\n        channel.tokenBalances[2] = channel.tokenBalances[2].sub(thread.tokenBalances[0]).sub(thread.tokenBalances[1]);\n\n        // deduct wei balances from total channel wei and reset thread balances\n        totalChannelWei = totalChannelWei.sub(thread.weiBalances[0]).sub(thread.weiBalances[1]);\n\n        // if user is receiver, send them receiver wei balance\n        if (user == receiver) {\n            user.transfer(thread.weiBalances[1]);\n        // if user is sender, send them remaining sender wei balance\n        } else if (user == sender) {\n            user.transfer(thread.weiBalances[0]);\n        }\n\n        // deduct token balances from channel total balances and reset thread balances\n        totalChannelToken = totalChannelToken.sub(thread.tokenBalances[0]).sub(thread.tokenBalances[1]);\n\n        // if user is receiver, send them receiver token balance\n        if (user == receiver) {\n            require(approvedToken.transfer(user, thread.tokenBalances[1]), \"user [receiver] token withdrawal transfer failed\");\n        // if user is sender, send them remaining sender token balance\n        } else if (user == sender) {\n            require(approvedToken.transfer(user, thread.tokenBalances[0]), \"user [sender] token withdrawal transfer failed\");\n        }\n\n        // Record that user has emptied\n        thread.emptied[user == sender ? 0 : 1] = true;\n\n        // decrement the channel threadCount\n        channel.threadCount = channel.threadCount.sub(1);\n\n        // if this is the last thread being emptied, re-open the channel\n        if (channel.threadCount == 0) {\n            channel.threadRoot = bytes32(0x0);\n            channel.channelClosingTime = 0;\n            channel.status = ChannelStatus.Open;\n        }\n\n        emit DidEmptyThread(\n            user,\n            sender,\n            receiver,\n            threadId,\n            msg.sender,\n            [channel.weiBalances[0], channel.weiBalances[1]],\n            [channel.tokenBalances[0], channel.tokenBalances[1]],\n            channel.txCount,\n            channel.threadRoot,\n            channel.threadCount\n        );\n    }\n\n\n    // anyone can call to re-open an account stuck in threadDispute after 10x challengePeriods from channel state finalization\n    function nukeThreads(\n        address user\n    ) public noReentrancy {\n        require(user != hub, \"user can not be hub\");\n        require(user != address(this), \"user can not be channel manager\");\n\n        Channel storage channel = channels[user];\n        require(channel.status == ChannelStatus.ThreadDispute, \"channel must be in thread dispute\");\n        require(channel.channelClosingTime.add(challengePeriod.mul(10)) < now, \"channel closing time must have passed by 10 challenge periods\");\n\n        // transfer any remaining channel wei to user\n        totalChannelWei = totalChannelWei.sub(channel.weiBalances[2]);\n        user.transfer(channel.weiBalances[2]);\n        uint256 weiAmount = channel.weiBalances[2];\n        channel.weiBalances[2] = 0;\n\n        // transfer any remaining channel tokens to user\n        totalChannelToken = totalChannelToken.sub(channel.tokenBalances[2]);\n        require(approvedToken.transfer(user, channel.tokenBalances[2]), \"user token withdrawal transfer failed\");\n        uint256 tokenAmount = channel.tokenBalances[2];\n        channel.tokenBalances[2] = 0;\n\n        // reset channel params\n        channel.threadCount = 0;\n        channel.threadRoot = bytes32(0x0);\n        channel.channelClosingTime = 0;\n        channel.status = ChannelStatus.Open;\n\n        emit DidNukeThreads(\n            user,\n            msg.sender,\n            weiAmount,\n            tokenAmount,\n            [channel.weiBalances[0], channel.weiBalances[1]],\n            [channel.tokenBalances[0], channel.tokenBalances[1]],\n            channel.txCount,\n            channel.threadRoot,\n            channel.threadCount\n        );\n    }\n\n    function() external payable {}\n\n    // ******************\n    // INTERNAL FUNCTIONS\n    // ******************\n\n    function _verifyAuthorizedUpdate(\n        Channel storage channel,\n        uint256[2] txCount,\n        uint256[2] weiBalances,\n        uint256[2] tokenBalances, // [hub, user]\n        uint256[4] pendingWeiUpdates, // [hubDeposit, hubWithdrawal, userDeposit, userWithdrawal]\n        uint256[4] pendingTokenUpdates, // [hubDeposit, hubWithdrawal, userDeposit, userWithdrawal]\n        uint256 timeout,\n        bool isHub\n    ) internal view {\n        require(channel.status == ChannelStatus.Open, \"channel must be open\");\n\n        // Usage:\n        // 1. exchange operations to protect user from exchange rate fluctuations\n        // 2. protects hub against user delaying forever\n        require(timeout == 0 || now < timeout, \"the timeout must be zero or not have passed\");\n\n        require(txCount[0] > channel.txCount[0], \"global txCount must be higher than the current global txCount\");\n        require(txCount[1] >= channel.txCount[1], \"onchain txCount must be higher or equal to the current onchain txCount\");\n\n        // offchain wei/token balances do not exceed onchain total wei/token\n        require(weiBalances[0].add(weiBalances[1]) <= channel.weiBalances[2], \"wei must be conserved\");\n        require(tokenBalances[0].add(tokenBalances[1]) <= channel.tokenBalances[2], \"tokens must be conserved\");\n\n        // hub has enough reserves for wei/token deposits for both the user and itself (if isHub, user deposit comes from hub)\n        if (isHub) {\n            require(pendingWeiUpdates[0].add(pendingWeiUpdates[2]) <= getHubReserveWei(), \"insufficient reserve wei for deposits\");\n            require(pendingTokenUpdates[0].add(pendingTokenUpdates[2]) <= getHubReserveTokens(), \"insufficient reserve tokens for deposits\");\n        // hub has enough reserves for only its own wei/token deposits\n        } else {\n            require(pendingWeiUpdates[0] <= getHubReserveWei(), \"insufficient reserve wei for deposits\");\n            require(pendingTokenUpdates[0] <= getHubReserveTokens(), \"insufficient reserve tokens for deposits\");\n        }\n\n        // wei is conserved - the current total channel wei + both deposits > final balances + both withdrawals\n        require(channel.weiBalances[2].add(pendingWeiUpdates[0]).add(pendingWeiUpdates[2]) >=\n                weiBalances[0].add(weiBalances[1]).add(pendingWeiUpdates[1]).add(pendingWeiUpdates[3]), \"insufficient wei\");\n\n        // token is conserved - the current total channel token + both deposits > final balances + both withdrawals\n        require(channel.tokenBalances[2].add(pendingTokenUpdates[0]).add(pendingTokenUpdates[2]) >=\n                tokenBalances[0].add(tokenBalances[1]).add(pendingTokenUpdates[1]).add(pendingTokenUpdates[3]), \"insufficient token\");\n    }\n\n    function _applyPendingUpdates(\n        uint256[3] storage channelBalances,\n        uint256[2] balances,\n        uint256[4] pendingUpdates\n    ) internal {\n        // update hub balance\n        // If the deposit is greater than the withdrawal, add the net of deposit minus withdrawal to the balances.\n        // Assumes the net has *not yet* been added to the balances.\n        if (pendingUpdates[0] > pendingUpdates[1]) {\n            channelBalances[0] = balances[0].add(pendingUpdates[0].sub(pendingUpdates[1]));\n        // Otherwise, if the deposit is less than or equal to the withdrawal,\n        // Assumes the net has *already* been added to the balances.\n        } else {\n            channelBalances[0] = balances[0];\n        }\n\n        // update user balance\n        // If the deposit is greater than the withdrawal, add the net of deposit minus withdrawal to the balances.\n        // Assumes the net has *not yet* been added to the balances.\n        if (pendingUpdates[2] > pendingUpdates[3]) {\n            channelBalances[1] = balances[1].add(pendingUpdates[2].sub(pendingUpdates[3]));\n\n        // Otherwise, if the deposit is less than or equal to the withdrawal,\n        // Assumes the net has *already* been added to the balances.\n        } else {\n            channelBalances[1] = balances[1];\n        }\n    }\n\n    function _revertPendingUpdates(\n        uint256[3] storage channelBalances,\n        uint256[2] balances,\n        uint256[4] pendingUpdates\n    ) internal {\n        // If the pending update has NOT been executed AND deposits > withdrawals, offchain state was NOT updated with delta, and is thus correct\n        if (pendingUpdates[0] > pendingUpdates[1]) {\n            channelBalances[0] = balances[0];\n\n        // If the pending update has NOT been executed AND deposits < withdrawals, offchain state should have been updated with delta, and must be reverted\n        } else {\n            channelBalances[0] = balances[0].add(pendingUpdates[1].sub(pendingUpdates[0])); // <- add withdrawal, sub deposit (opposite order as _applyPendingUpdates)\n        }\n\n        // If the pending update has NOT been executed AND deposits > withdrawals, offchain state was NOT updated with delta, and is thus correct\n        if (pendingUpdates[2] > pendingUpdates[3]) {\n            channelBalances[1] = balances[1];\n\n        // If the pending update has NOT been executed AND deposits > withdrawals, offchain state should have been updated with delta, and must be reverted\n        } else {\n            channelBalances[1] = balances[1].add(pendingUpdates[3].sub(pendingUpdates[2])); // <- add withdrawal, sub deposit (opposite order as _applyPendingUpdates)\n        }\n    }\n\n    function _updateChannelBalances(\n        Channel storage channel,\n        uint256[2] weiBalances,\n        uint256[2] tokenBalances,\n        uint256[4] pendingWeiUpdates,\n        uint256[4] pendingTokenUpdates\n    ) internal {\n        _applyPendingUpdates(channel.weiBalances, weiBalances, pendingWeiUpdates);\n        _applyPendingUpdates(channel.tokenBalances, tokenBalances, pendingTokenUpdates);\n\n        totalChannelWei = totalChannelWei.add(pendingWeiUpdates[0]).add(pendingWeiUpdates[2]).sub(pendingWeiUpdates[1]).sub(pendingWeiUpdates[3]);\n        totalChannelToken = totalChannelToken.add(pendingTokenUpdates[0]).add(pendingTokenUpdates[2]).sub(pendingTokenUpdates[1]).sub(pendingTokenUpdates[3]);\n\n        // update channel total balances\n        channel.weiBalances[2] = channel.weiBalances[2].add(pendingWeiUpdates[0]).add(pendingWeiUpdates[2]).sub(pendingWeiUpdates[1]).sub(pendingWeiUpdates[3]);\n        channel.tokenBalances[2] = channel.tokenBalances[2].add(pendingTokenUpdates[0]).add(pendingTokenUpdates[2]).sub(pendingTokenUpdates[1]).sub(pendingTokenUpdates[3]);\n    }\n\n    function _verifySig (\n        address[2] user, // [user, recipient]\n        uint256[2] weiBalances, // [hub, user]\n        uint256[2] tokenBalances, // [hub, user]\n        uint256[4] pendingWeiUpdates, // [hubDeposit, hubWithdrawal, userDeposit, userWithdrawal]\n        uint256[4] pendingTokenUpdates, // [hubDeposit, hubWithdrawal, userDeposit, userWithdrawal]\n        uint256[2] txCount, // [global, onchain] persisted onchain even when empty\n        bytes32 threadRoot,\n        uint256 threadCount,\n        uint256 timeout,\n        string sigHub,\n        string sigUser,\n        bool[2] checks // [checkHubSig?, checkUserSig?]\n    ) internal view {\n        require(user[0] != hub, \"user can not be hub\");\n        require(user[0] != address(this), \"user can not be channel manager\");\n\n        // prepare state hash to check hub sig\n        bytes32 state = keccak256(\n            abi.encodePacked(\n                address(this),\n                user, // [user, recipient]\n                weiBalances, // [hub, user]\n                tokenBalances, // [hub, user]\n                pendingWeiUpdates, // [hubDeposit, hubWithdrawal, userDeposit, userWithdrawal]\n                pendingTokenUpdates, // [hubDeposit, hubWithdrawal, userDeposit, userWithdrawal]\n                txCount, // persisted onchain even when empty\n                threadRoot,\n                threadCount,\n                timeout\n            )\n        );\n\n        if (checks[0]) {\n            require(hub == ECTools.recoverSigner(state, sigHub), \"hub signature invalid\");\n        }\n\n        if (checks[1]) {\n            require(user[0] == ECTools.recoverSigner(state, sigUser), \"user signature invalid\");\n        }\n    }\n\n    function _verifyThread(\n        address sender,\n        address receiver,\n        uint256 threadId,\n        uint256[2] weiBalances,\n        uint256[2] tokenBalances,\n        uint256 txCount,\n        bytes proof,\n        string sig,\n        bytes32 threadRoot\n    ) internal view {\n        require(sender != receiver, \"sender can not be receiver\");\n        require(sender != hub && receiver != hub, \"hub can not be sender or receiver\");\n        require(sender != address(this) && receiver != address(this), \"channel manager can not be sender or receiver\");\n\n        bytes32 state = keccak256(\n            abi.encodePacked(\n                address(this),\n                sender,\n                receiver,\n                threadId,\n                weiBalances, // [sender, receiver]\n                tokenBalances, // [sender, receiver]\n                txCount // persisted onchain even when empty\n            )\n        );\n        require(ECTools.isSignedBy(state, sig, sender), \"signature invalid\");\n\n        // Stronger requirement to cover edge case where threadRoot is maliciously set to 0x0 by hub/sender\n        // For more info, see inclusionBypass.md\n        if(threadRoot != bytes32(0x0) || (threadRoot == bytes32(0x0) && txCount == 0)) {\n            require(_isContained(state, proof, threadRoot), \"initial thread state is not contained in threadRoot\");\n        }\n    }\n\n    function _isContained(bytes32 _hash, bytes _proof, bytes32 _root) internal pure returns (bool) {\n        bytes32 cursor = _hash;\n        bytes32 proofElem;\n\n        for (uint256 i = 64; i <= _proof.length; i += 32) {\n            assembly { proofElem := mload(add(_proof, i)) }\n\n            if (cursor < proofElem) {\n                cursor = keccak256(abi.encodePacked(cursor, proofElem));\n            } else {\n                cursor = keccak256(abi.encodePacked(proofElem, cursor));\n            }\n        }\n\n        return cursor == _root;\n    }\n\n    function getChannelBalances(address user) constant public returns (\n        uint256 weiHub,\n        uint256 weiUser,\n        uint256 weiTotal,\n        uint256 tokenHub,\n        uint256 tokenUser,\n        uint256 tokenTotal\n    ) {\n        Channel memory channel = channels[user];\n        return (\n            channel.weiBalances[0],\n            channel.weiBalances[1],\n            channel.weiBalances[2],\n            channel.tokenBalances[0],\n            channel.tokenBalances[1],\n            channel.tokenBalances[2]\n        );\n    }\n\n    function getChannelDetails(address user) constant public returns (\n        uint256 txCountGlobal,\n        uint256 txCountChain,\n        bytes32 threadRoot,\n        uint256 threadCount,\n        address exitInitiator,\n        uint256 channelClosingTime,\n        ChannelStatus status\n    ) {\n        Channel memory channel = channels[user];\n        return (\n            channel.txCount[0],\n            channel.txCount[1],\n            channel.threadRoot,\n            channel.threadCount,\n            channel.exitInitiator,\n            channel.channelClosingTime,\n            channel.status\n        );\n    }\n}\n",
	"sourcePath": "/Users/laynehaber/Developer/indra/modules/contracts/contracts/ChannelManager.sol",
	"compiler": {
		"name": "solc",
		"version": "0.4.25+commit.59dbf8f1.Emscripten.clang"
	},
	"schemaVersion": "3.0.0-beta.1",
	"updatedAt": "2019-02-05T20:50:03.846Z"
}